:020000040000FA
:100000006880002031420000394200003B4200007D
:100010003D4200003F42000041420000000000005D
:10002000000000000000000000000000434200004B
:100030004542000000000000474200004942000025
:100040004B4200004D4200004F4200005142000070
:100050005342000055420000574200005942000040
:100060005B4200005D4200005F4200006142000010
:1000700063420000654200006742000069420000E0
:100080006B4200006D4200006F42000071420000B0
:100090007342000075420000774200007942000080
:1000A0007B4200007D4200007F4200008142000050
:1000B0008342000085420000874200008942000020
:1000C0008B4200008D4200008F42000091420000F0
:1000D00093420000954200009742000099420000C0
:1000E0009B4200009D4200009F420000A142000090
:1000F000A3420000A5420000A7420000A942000060
:10010000AB420000AD420000AF420000B14200002F
:10011000B3420000B5420000B7420000B9420000FF
:10012000BB420000BD420000BF420000C1420000CF
:10013000C3420000C5420000C7420000C94200009F
:10014000CB420000CD420000CF420000E942000057
:100150000000000000000000EB420000ED42000043
:10016000EF420000F142000000000000F3420000F6
:10017000F5420000F7420000F9420000FB42000097
:10018000FD420000FF420000014300000343000065
:100190000543000007430000094300000B43000033
:1001A0000D4300000F430000114300001343000003
:1001B0001543000017430000194300001B430000D3
:1001C0001D4300001F4300002143000023430000A3
:1001D0002543000027430000294300002B43000073
:1001E0002D4300002F430000314300003343000043
:1001F0003543000037430000394300003B43000013
:1002000000F002F800F03CF80AA090E8000C8244EC
:100210008344AAF10107DA4501D100F031F8AFF2C9
:10022000090EBAE80F0013F0010F18BFFB1A43F0D4
:1002300001031847D44A0000F44A0000103A24BFD2
:1002400078C878C1FAD8520724BF30C830C144BF3B
:1002500004680C607047000000230024002500267D
:10026000103A28BF78C1FBD8520728BF30C148BF19
:100270000B6070471FB504F02DF91FBD10B510BD00
:1002800004F0DCF81146FFF7F5FF00F0A0FB04F0E6
:10029000FAF803B4FFF7F2FF03BC04F001F9000021
:1002A00038B40B0C89B20C4685B2000C6C435D432C
:1002B0004143434328042D0C24186B4108040D0CC2
:1002C00024186B411460536038BC7047A0FB0101D7
:1002D000106051607047F8B478C878C278C878C2A6
:1002E00078C80F68DB194F687C418F687D41CF6803
:1002F0007E4178C278C80F697B414F697C418F6924
:100300007D41CF697E4178C20B6A53F100034C6A8C
:1003100054F100048D6A55F10005CE6A56F10006CD
:1003200078C20B6B53F100034C6B54F100048D6BDE
:1003300055F10005CE6B56F10006002757F1000776
:10034000F8C2F8BC7047F8B401F1200191E87800D8
:100350000768DB1947687C4187687D41C7687E4133
:1003600078C191E8780007697B4147697C418769DA
:100370007D41C7697E4178C191E87800076A7B4179
:10038000476A7C41876A7D41C76A7E4178C191E8AE
:100390007800076B7B41476B7C41876B7D41C76B66
:1003A0007E41002757F10007F8C1F8BC7047F8B448
:1003B00001F1400191E878000768DB1947687C414A
:1003C00087687D41C7687E4178C191E878000769F8
:1003D0007B4147697C4187697D41C7697E4178C11E
:1003E000036A0F687B41446A54F10004856A55F141
:1003F0000005C66A56F1000678C1036B53F100038D
:10040000446B54F10004856B55F10005C66B56F141
:10041000000678C1F8BC7047F0B543464C465546D7
:100420005E467FB4844692468B46104630C80830FC
:10043000CCC903B42E4611462D1B804145402D1AD0
:10044000C91ABF417940C91B47408946A846A2FB4B
:100450000401A3FB062376405218734149464546E2
:100460008046A1FB05107940784064407F105141DF
:1004700042416741404609185A417B41644603C4E2
:1004800010B403B45146924633C922462F46121A7D
:100490008F41B64172407740921BB74184B45A46AF
:1004A0009B460FCA801A9941BF4178407940C01BD2
:1004B000B9417740BC4603B42E4611462D1B8041FE
:1004C00045402D1AC91ABF417940C91B474089468A
:1004D000A846A2FB0401A3FB0623764052187341F1
:1004E000494645468046A1FB051079407840644066
:1004F0007F10514142416741404609185A417B41B2
:1005000054465D46764000196941724173419246F6
:100510009B463CBC03B42E4611462D1B80414540F2
:100520002D1AC91ABF417940C91B47408946A846C0
:10053000A2FB0401A3FB06237640521873414946EF
:1005400045468046A1FB05107940784064407F1005
:10055000514142416741404609185A417B4130BCF4
:100560006646674670407140724073407610604145
:10057000694154415D415240564157410CBC90463F
:10058000994612184B415046594644414D41464107
:100590004F4101BC0CC006BC01B4F0B48A4693467E
:1005A00030C90CCA2E4611462D1B804145402D1ADC
:1005B000C91ABF417940C91B47408946A846A2FBDA
:1005C0000401A3FB06237640521873414946454671
:1005D0008046A1FB05107940784064407F1051416E
:1005E00042416741404609185A417B4103B4514694
:1005F000924633C922462F46121A8F41B6417240A5
:100600007740921BB74184B45A469B460FCA801A62
:100610009941BF4178407940C01BB9417740BC4601
:1006200003B42E4611462D1B804145402D1AC91A90
:10063000BF417940C91B47408946A846A2FB040137
:10064000A3FB06237640521873414946454680462F
:10065000A1FB05107940784064407F105141424130
:100660006741404609185A417B4154465D467640F1
:10067000001969417241734192469B463CBC03B4E8
:100680002E4611462D1B804145402D1AC91ABF41E7
:100690007940C91B47408946A846A2FB0401A3FB39
:1006A0000623764052187341494645468046A1FBD1
:1006B00005107940784064407F10514142416741C4
:1006C000404609185A417B4130BC66466746704037
:1006D00071407240734076106041694154415D4100
:1006E0005240564157410CBC9046994612184B4116
:1006F0005046594644414D4146414F414046494686
:10070000B046B946C0BC80197941C0BC72417B413A
:1007100080BC0FC7BA46404046464F46444145411B
:100720004641474107BC9446F1B4FFC9001BA941AB
:10073000B241BB416440A4416040614062406340BB
:10074000001BA141A241A3416646A44655460FC5E0
:10075000AB4680468946FFCE241A8D4196419F4183
:10076000404080414440454046404740241A85412E
:1007700086418741614648405946F0C101B442462E
:100780004B462E4611462D1B804145402D1AC91A55
:10079000BF417940C91B47408946A846A2FB0401D6
:1007A000A3FB0623764052187341494645468046CE
:1007B000A1FB05107940784064407F1051414241CF
:1007C0006741404609185A417B4103B4514692465D
:1007D00033C922462F46121A8F41B64172407740E4
:1007E000921BB74184B45A469B460FCA801A99415E
:1007F000BF4178407940C01BB9417740BC4603B443
:100800002E4611462D1B804145402D1AC91ABF4165
:100810007940C91B47408946A846A2FB0401A3FBB7
:100820000623764052187341494645468046A1FB4F
:1008300005107940784064407F1051414241674142
:10084000404609185A417B4154465D46764000199E
:1008500069417241734192469B463CBC03B42E46AB
:1008600011462D1B804145402D1AC91ABF417940C0
:10087000C91B47408946A846A2FB0401A3FB0623E7
:10088000764052187341494645468046A1FB051003
:100890007940784064407F10514142416741404671
:1008A00009185A417B4130BC66466746704071402A
:1008B0007240734076106041694154415D4152403D
:1008C000564157410CBC9046994612184B41504630
:1008D000594644414D4146414F4103BC8446424044
:1008E00043404440454046404740F0B4F0C98B4641
:1008F00049464140A246444640106040544660414B
:10090000694172417B4164406441A2465C46F0CC3F
:100910000019694172417B41A1465C460FC4A34660
:100920000FBC4C4644414D4156415F410021494175
:1009300050468A4640100FBC44414D4156415F41EC
:1009400080465846F0C08346404666465546644059
:100950007541664140197141724173415F460FC74D
:1009600078BC9846A146AA46B346F0BD7047000041
:10097000F0B517460D460A46A1B00446014610A838
:10098000FFF74AFD04F120012A460E466846FFF7AC
:1009900043FD3A46694610A8FFF79DFC224605F143
:1009A00020010C466846FFF737FD39466846FFF7D9
:1009B000CAFC324621466846FFF72EFD3946684696
:1009C000FFF7F5FC21B0F0BD124800687047ADF5A7
:1009D000876D202210A1FEA803F0D4FC202216A1CE
:1009E0000DF5836003F0CEFC6946FEA802F0EEFF31
:1009F0005FA90DF5836003F00CF9BEAA5FA9FEA8FC
:100A000003F038FADEAA69460DF5836003F00BFBAC
:100A1000FEE70000041000E0545555555555567832
:100A20001234567812345678123456781234567876
:100A30001234567812345678987654329876543266
:100A40009876543298765432987654329876543256
:100A500098765432987654322DE9F04F03680C683A
:100A6000A1B01F1917600A9745684C6802F1080881
:100A700055EB04075760089783688C6802F10C06F1
:100A800053EB040797600797C368CC6802F1100521
:100A900053EB0407D760069703690C6902F1200B3A
:100AA00053EB04071761059743694F6902F114047A
:100AB0005F4157610497D0F818C08F6902F118039D
:100AC0005CEB07079761039702F11C071F97BA4673
:100AD000D0F81CC0CF695CEB0707CAF8007002971A
:100AE000D0F820C00F6A02F1240A5CEB07071762F6
:100AF0000197D0F824C04F6A5CEB07075762109744
:100B000002F128071C97B946D0F828C08F6A5CEB21
:100B10000707C9F800700F9702F12C071B97B94619
:100B2000D0F82CC0CF6A02F1300E5CEB0707C9F891
:100B300000700997D0F830C00F6B5CEB07071763A4
:100B40000E9701F134070C9702F13407B946199753
:100B50000C9FD0F834C03F685CEB0707C9F8007001
:100B60000D9701F138070C9702F13807B94618972D
:100B70000C9FD0F838C03F685CEB0707C9F80070DD
:100B80000C97C06BC96B02F13C074141D163FC4833
:100B9000B9460B9101680A9F7F1A17600A9741684E
:100BA000089F8F41576008978168079F8F41C8F859
:100BB00000700797C168069F77EB010131600691CD
:100BC0000169059F77EB0101296005914169049F47
:100BD00077EB0101216004918169039F77EB0101AB
:100BE00019600391C169029F77EB01010291016ACB
:100BF000019F77EB01010191416A109F77EB0101A1
:100C00001091816A0F9F77EB01010F91C16A099FD3
:100C100077EB01010991016B0E9F77EB01010E91BA
:100C2000416B0D9F77EB01010D91816B0C9F77EB71
:100C300001010C91C76B0B99B9410B914FF0000169
:100C400061F1000C01680A9F01EA0C01791811603A
:100C50004168089F01EA0C01794151608168079F52
:100C600001EA0C017941C8F80010C268069902EA4D
:100C70000C02514131600269059902EA0C025141AE
:100C800029604269049902EA0C025141216082699B
:100C9000039902EA0C0251411960C269029902EA01
:100CA0000C021F9F51413960026A019902EA0C024D
:100CB0005141CBF80010426A109902EA0C025141EE
:100CC000CAF80010826A0F991C9F02EA0C02514177
:100CD0003960C26A09991B9F02EA0C0251413960CE
:100CE000026B0E9902EA0C025141CEF80010426BE1
:100CF0000D99199F02EA0C0251413960826B0C99DF
:100D0000189F02EA0C0251413960C06B0B9900EA4E
:100D10000C004841C9F8000021B0BDE8F08F2DE972
:100D2000F04F03680C68A1B01E1B16600C96456856
:100D30004C6802F1080775EB04065660109683684C
:100D40008C6802F10C0873EB040696600F96C3687A
:100D5000CC6802F1140573EB0406D6600B960369A8
:100D60000C6902F1100673EB0409C2F81090CDF87B
:100D7000389043694C69B24673EB040656610A9693
:100D800083698C6902F1180673EB0409C2F81890A4
:100D9000CDF82490C369CC69B64673EB0409C2F858
:100DA0001C9002F11C06CDF83490B346036A0E6A1B
:100DB00002F1200473EB06061662089602F124067F
:100DC00018960096436A4E6A73EB0609009EC6F8B1
:100DD000009002F128061396CDF81C900096836AC5
:100DE0008E6A73EB0609009EC6F8009002F12C068D
:100DF0001796CDF818900096C36ACE6A73EB060971
:100E0000009EC6F8009002F13006CDF814901696B8
:100E10000096036B0E6B73EB0609009EC6F80090FC
:100E200002F134061296CDF810900096436B4E6B8B
:100E300073EB0609009E02F13803C6F80090CDF866
:100E40000C90D0F838C08E6B7CEB06069663029649
:100E500002F13C061F96C06BC96BDFF824C18841C4
:100E600001904FF00000DCF8001060F100000C9ED3
:100E700001EA000171181160DCF80410109E01EA0B
:100E8000000171415160DCF808100F9E01EA000179
:100E900071413960DCF80C100B9E01EA00017141D0
:100EA000C8F80010DCF81010DDF8389001EA0001F5
:100EB00059EB0101CAF80010DCF814100A9E01EA8F
:100EC000000171412960DCF81810DDF8249001EA76
:100ED000000159EB0101CEF80010DCF81C10DDF820
:100EE000349001EA000159EB0101CBF80010DCF865
:100EF0002010089E01EA000171412160DCF82410F5
:100F0000DDF81C90189E01EA000159EB01013160E7
:100F1000DCF82810DDF81890139E01EA000159EB67
:100F200001013160DCF82C10DDF81490179E01EA05
:100F3000000159EB01013160DCF83010DDF8109050
:100F4000169E01EA000159EB01013160DCF8341012
:100F5000DDF80C90129E01EA000159EB01013160AD
:100F6000DCF83810029E01EA000171411960DCF8DA
:100F70003C101F9E01EA0001019848413060CBE619
:100F8000604500002DE9F04700241646884681465A
:100F900025464FF0010A00BF59F8250058F82510E2
:100FA000471A01F03CFC794239438AEAD171214069
:100FB0000843391B46F825106D1C0446102DEBD351
:100FC0000021DFF88497C0F100080C4656F8240091
:100FD000451859F8240000EA0800284446F824007F
:100FE000284601F01CFC074656F82400294601F06B
:100FF00016FC641C47EA0001102CE7D3BDE8F0871B
:101000002DE9F0470024DFF84087074625464FF0DA
:10101000010900BF58F8250057F82510461A01F0BD
:10102000FEFB7142314389EAD17121400843311BF3
:1010300047F825106D1C0446102DEBD3DEE72DE993
:10104000F047804600780E46002100F00100DFF8EE
:10105000FCA6C0F100090C4658F8240045185AF8BF
:10106000240000EA0900284446F82400284601F03C
:10107000D6FB074656F82400294601F0D0FB641C35
:1010800047EA0001102CE7D33046BDE8F0471021B5
:1010900002F01DB82DE9F0470024DFF8B0860646BF
:1010A00025464FF0010900BF56F8250058F82510D5
:1010B000471A01F0B4FB7942394389EAD1712140E2
:1010C0000843391B46F825106D1C0446102DEBD340
:1010D0000021C0F100090C4656F82400451858F8C4
:1010E000240000EA0900284446F82400284601F0BC
:1010F00096FB074656F82400294601F090FB641C35
:1011000047EA0001102CE7D378E72DE9FF4F4FF0B5
:10111000000883B01D46C146444640468246A84268
:1011200036D2002628E000BF0498AAEB060101AAE7
:1011300050F82110039850F82600FFF7C7F8DDF8A3
:1011400004B000215C44584601F069FB074659464B
:10115000204601F064FB47EA0001029800EB010B16
:10116000D944584601F05BFB07465946484601F012
:1011700056FB0743B844761C5645D5D9059840F828
:101180002A404C46C1464FF000080AF10100C5E76D
:101190004FF0FF3000EB4500AA46009038E000BF5A
:1011A000AAEB050627E000BF0498AAEB060101AAF6
:1011B00050F82110039850F82600FFF787F8DDF863
:1011C00004B000215C44584601F029FB074659460B
:1011D000204601F024FB47EA0001029800EB010BD6
:1011E000D944584601F01BFB07465946484601F0D2
:1011F00016FB0743B844761CAE42D5D3059840F899
:101200002A404C46C14600984FF000080AF1010AF6
:101210005045C5D8059800EBC50040F8044C07B010
:101220007BE52DE9F04300244FF0070C22462646CB
:101230002346DFF81C9515E0002511E09F1FBD42F5
:101240000CD2A3EB050851F8257059F82880A7FBAC
:101250000878F61952EB080254F1000405F1010573
:101260009D42EBD350F82350751952F1000654F10A
:10127000000241F8235003F101034FF00004102B4A
:10128000DAD3102303E000BFBCF1000F01D0ACF1B2
:10129000010CA3F10F0712E0CCF11005BD420CD9EF
:1012A000A3EB070851F8275059F82880A5FB0858E8
:1012B000761952EB080254F1000407F10107102FD0
:1012C000EAD350F82350751952F1000654F1000288
:1012D00001EB830403F1010344F8405C4FF0000488
:1012E0001F2BD1D3C06F3018C863BDE8F0832DE940
:1012F000F04F9FB002680A60436800F108024B603B
:1013000013460C9201F108021E921B6800F10C02B8
:101310008B6013460B9201F10C0209921B6800F1DD
:101320001002CB6013460A9201F1100213921B685F
:1013300000F114020B611346059201F11402199297
:101340001B6800F118024B611346149201F1180258
:1013500011921B68FE4A8B61036812680024A3FB8C
:101360000235C269DFF8E8A39B18224665411344A1
:1013700001F11C04CB61A1460668DAF8044052F181
:101380000007A6FB0446641956EB070C5646456851
:10139000366852F10007A5FB06562C1956EB0C05D2
:1013A000066A574134195541574101F1200614444A
:1013B00015960C62D046046858F8086FDAF80430C5
:1013C000A4FB064664197E41476852F10005A7FB5D
:1013D00003371B197E4152EB05070C9C5546D4463A
:1013E00024682D689346A4FB0545E3186E4152EB33
:1013F0000704456A5746EB1801F124051344179575
:101400004B6203685CF80C5F5641A3FB0535544101
:101410009B1955EB04064268D8F800505BF10004B4
:10142000A2FB0525D3180C9A75415BEB04061268E4
:101430007C6807F1100AA2FB0424D2186C410B9BB4
:101440003D465BEB06061B682D68A3FB05359A1825
:101450006C41836A5BEB06059A185BEB04035BEB5C
:10146000050401F128055A440D958A620568DAF8E9
:101470000020A5FB0225D31855EB04064268DCF8D2
:1014800000405BF10005A2FB0424D2180C9B7441C0
:101490005BEB05061B68D8F8005001F1300EA3FB8A
:1014A00005359A180B9B6C415BEB06051B687E6843
:1014B000A3FB06369A1874415BEB05060A9B3D4672
:1014C0001B682D68A3FB05359A1855EB04075BEBE9
:1014D00006030493C36A01F13C069A1803921D9611
:1014E00001F138061C9601F13406CDF86C604FF01E
:1014F000000677410297049F954A7E410496039F18
:1015000001F12C0B4FF0000602F1180502F11C044A
:1015100002F12003374402F11402CBF80070066890
:101520001768A6FB07670197029FF7190297019FAB
:10153000049E7E4104964FF0000656F10006039685
:101540004668DAF80070A6FB07670197029FF71953
:101550000297019F049E7E410496039E4FF0000770
:101560007E4103960C9EDCF800703668A6FB076788
:101570000197029FF7190297019F049E7E410496EE
:10158000039E4FF000077E4103960B9ED8F8007033
:101590003668A6FB07670197029FF7190297019F1C
:1015A000049E7E410496039E4FF000077E41039601
:1015B000674E06F1040601960A9E3768019E36685A
:1015C000A7FB06670197029FF7190297019F049EE8
:1015D0007E410496039E4FF000077E4103965C4EC9
:1015E0000196059E3768019E3668A7FB066701973E
:1015F000029FF6190296019F049E7E410496039E67
:101600004FF000077E410396076B029EBE190296BB
:10161000049E4FF0000777410497039E4FF00007A8
:101620007E410396029E3744CEF8007006682F680C
:10163000A6FB07670197049FF7190497019F039E74
:101640007E4103964FF0000656F10006029646686A
:101650001768A6FB07670197049FF7190497019F76
:10166000039E7E410396029E4FF000077E41029644
:101670000C9EDAF800703668A6FB07670197049F96
:10168000F6190496039F019E7E410396029F4FF038
:1016900000067E4102960B9EDCF800703668A6FBC1
:1016A00007670197049FF7190497019F039E7E41E6
:1016B0000396029E4FF000077E4102960A9ED8F8DC
:1016C00000703668A6FB07670197049FF719049717
:1016D000019F039E7E410396029E4FF000077E41CC
:1016E00002961B4E06F104060196059E3768019E80
:1016F0003668A7FB06670197049FF7190497019FB7
:10170000039E7E410396029E4FF000077E410296A3
:101710000F4E0196149E3768019E3668A7FB066738
:101720000197049FF6190496019F039E7E4103963C
:10173000029E4FF000077E410296476B049EBE1941
:101740004FF00007049605E060450000E04400000B
:1017500020450000039E77410397029E4FF000074B
:101760007E4102961B9E0096049E3744009E376081
:1017700006682768A6FB07670197039FF719039779
:10178000DDE901767E4102964FF0000656F1000633
:10179000049646682F68A6FB07670197039FF71911
:1017A0000397DDE901767E410296049E4FF0000723
:1017B0007E4104960C9E17683668A6FB0767019762
:1017C000039FF7190397DDE901767E410296049E97
:1017D0004FF000077E4104960B9EDAF800703668E1
:1017E000A6FB07670197039FF7190397DDE90176C9
:1017F0007E410296049E4FF000077E4104960A9EA9
:10180000DCF800703668A6FB07670197039FF6199E
:10181000CDF80C60DDE901677E410296049F4FF030
:1018200000067E410496059ED8F800703668A6FB37
:1018300007670197039FF7190397DDE901767E415A
:101840000296049E4FF000077E410496FE4E0196DC
:10185000149E3768019E3668A7FB06670197039FB1
:10186000F7190397DDE901767E410296049E4FF059
:1018700000077E410496F44EA6F104060196D9F8BD
:1018800000703668A7FB06670197039FF619039659
:10189000DDE901767E410296049E4FF000077E410D
:1018A0000496876B039EBE190396029E4FF00007B5
:1018B00077410297049E4FF000077E4104961C9EDC
:1018C0000096039E3744009E376006681F68A6FB9B
:1018D00007670197029FF7190297019F049E7E41B7
:1018E00004964FF0000656F10006039646682768F6
:1018F000A6FB07670197029FF7190297019F049EB5
:101900007E410496039E4FF000077E4103960C9E95
:101910002F683668A6FB07670197029FF7190297A1
:10192000019F049E7E410496039E4FF000077E4176
:1019300003960B9E17683668A6FB07670197029F00
:10194000F7190297019F049E7E410496039E4FF073
:1019500000077E4103960A9EDAF800703668A6FBFF
:1019600007670197029FF7190297019F049E7E4126
:101970000496039E4FF000077E410396059EDCF817
:1019800000703668A6FB07670197029FF61902965A
:10199000049F019E7E410496039F4FF000067E4106
:1019A0000396149ED8F800703668A6FB0767019767
:1019B000029FF7190297019F049E7E410496039EA1
:1019C0004FF000077E4103969F4E0196D9F80070B4
:1019D0003668A7FB06670197029FF7190297019FD8
:1019E000049E7E410496039E4FF000077E410396BD
:1019F000954EA6F104060196159E3768019E36683D
:101A0000A7FB06670197029FF6190296019F049EA5
:101A10007E410496039E4FF000077E410396C76BFC
:101A2000029EBE190296049E4FF00007774104976C
:101A3000039E4FF000077E4103961D9E0096029E76
:101A40003744009E376046681F68A6FB076701970A
:101A5000049FF7190497019F039E7E4103964FF060
:101A6000000656F1000602960C9E27683668A6FB13
:101A700007670197049FF7190497019F039E7E4112
:101A80000396029E4FF000077E4102960B9E2F6840
:101A90003668A6FB07670197049FF7190497019F13
:101AA000039E7E410396029E4FF000077E41029600
:101AB0000A9E17683668A6FB07670197049FF71907
:101AC0000497019F039E7E414FF000070396029EFC
:101AD0007E410296059EDAF800703668A6FB07671D
:101AE0000197049FF7190497019F039E7E41039677
:101AF000029E4FF000077E410296149EDCF80070B3
:101B00003668A6FB07670197049FF6190496039FA2
:101B1000019E7E410396029F4FF000067E41029691
:101B2000D9F80060D8F80070A6FB07670197049FFA
:101B3000F7190497019F039E7E410396029E4FF082
:101B400000077E410296404E0196159E3768019E21
:101B50003668A7FB06670197049FF7190497019F52
:101B6000039E7E410396029E4FF000077E4102963F
:101B7000354EA6F104060196179E3768019E366819
:101B8000A7FB06670197049FF6190496019F039E21
:101B90007E410396029E4FF000077E410296076C3D
:101BA000049EBE190496039E4FF0000777410397E9
:101BB000029E4FF000077E410296049E3E440E6056
:101BC0000C9E1F683668A6FB07670197039FF719ED
:101BD0000397DDE901767E4102964FF0000656F14B
:101BE000000604960B9E27683668A6FB07670197D8
:101BF000039FF7190397DDE901767E410296049E63
:101C00004FF000077E4104960A9E2F683668A6FBB7
:101C100007670197039FF7190397DDE901767E4176
:101C20000296049E4FF000077E410496059E1768B9
:101C30003668A6FB07670197039FF7190397DDE94D
:101C400001767E4102E00000244500000296049ED9
:101C50004FF000077E410496149EDAF80070366853
:101C6000A6FB07670197039FF7190397DDE9017644
:101C70007E410296049E4FF000077E410496D9F8FB
:101C80000060DCF80070A6FB07670197039FF61958
:101C9000CDF80C60DDE901677E410296049F4FF0AC
:101CA00000067E410496159ED8F800703668A6FBA3
:101CB00007670197039FF7190397DDE901767E41D6
:101CC0000296049E4FF000077E410496FE4E019658
:101CD000179E3768019E3668A7FB06670197039F2A
:101CE000F7190397DDE901767E410296049E4FF0D5
:101CF00000077E410496F44EA6F1040601960D9E5F
:101D00003768019E3668A7FB06670197039FF6199F
:101D10000396DDE901767E410296049E4FF00007AE
:101D20007E410496476C039EBE190396029E4FF0B7
:101D300000077E410296049E7E410496039E3E4427
:101D40004E600B991E680968A1FB0617029E8E194A
:101D50000296049E57EB060104914FF0000151F1E9
:101D6000000103910A9926680968A1FB0617029EE3
:101D70008E19049902967941049103994FF0000657
:101D80007141039105992E680968A1FB0617029E0F
:101D90008E19049902967941049103994FF0000637
:101DA00071410391149916680968A1FB0617029EF8
:101DB0008E19049902967941049103994FF0000617
:101DC00071410391D9F80010DAF80060A1FB061701
:101DD000029E8E19049902967941049103994FF05D
:101DE0000006714103911599DCF800600968A1FBB8
:101DF0000617029E891902910499039E7941049164
:101E00004FF00001714103911799D8F800600968FB
:101E1000A1FB0617029E8E1904990296794104913E
:101E200003994FF0000671410391A7490D9EA1F15E
:101E3000040136684968A6FB0117029E8E190499B1
:101E400002967941049103994FF0000671419E4E2C
:101E50000391A6F10406DBF800103668A1FB061713
:101E6000029E8919029104994FF00006794104916C
:101E7000039956EB0107866C029971180291049937
:101E80004FF000064E414FF000017941CDE90316B5
:101E900002991E9E4FF00007394431600A991E686E
:101EA0000968A1FB0617049E8E19039904967941CF
:101EB00003914FF0000151F100010291059926684C
:101EC0000968A1FB0617049E8E19039904967941AF
:101ED000039102994FF000067141029114992E6806
:101EE0000968A1FB0617049E8E190399049679418F
:101EF000039102994FF0000671410291D9F8001048
:101F00001668A1FB0617049E8E1903990496794161
:101F1000039102994FF00006714102911599DAF888
:101F200000600968A1FB0617049E8E1903990496A8
:101F30007941039102994FF000067141029117997E
:101F4000DCF800600968A1FB0617049E891904915A
:101F50000399029E794103914FF000017141029172
:101F60000D99D8F800600968A1FB0617049E8E1928
:101F7000039904967941039102994FF0000671414B
:101F800002915149DBF80060A1F104014968A6FB08
:101F90000117049E8E1903990496794103910299C1
:101FA0004FF000067141484E0291A6F10406DEF89A
:101FB00000103668A1FB0617049E89190491039945
:101FC0004FF0000679410391029956EB0107C66C68
:101FD00004997118049103994FF000064E414FF097
:101FE00000017941CDE902160499099E4FF00007DE
:101FF0003944316005991E680968A1FB0617039EE4
:102000008E190299794102914FF0000151F10001BE
:102010000491149927680968A1FB07178E19029982
:1020200003967941029104994FF0000671410491A1
:10203000D9F800102E68A1FB0617039E8E1902998D
:1020400003967941029104994FF000067141049181
:10205000159916680968A1FB0617039E8E19029947
:1020600003967941029104994FF000067141049161
:102070001799DAF800600968A1FB0617039E8E190C
:10208000029903967941029104994FF0000671413B
:1020900004910D99DCF800600968A1FB0617039E06
:1020A0008919039102997941029104994FF000072F
:1020B00079410491DBF80010D8F80060A1FB061606
:1020C0000196039E8E1901E0244500000396DDE988
:1020D000016171410291049979410491FE49019194
:1020E000DEF800600968A6FB01160196039E8E19B2
:1020F0000396DDE9016171410291049979410491EE
:10210000F549A1F1040101911B990E680199096833
:10211000A6FB01160196039E89190391DDE9016171
:1021200071410291049979410491066D03997118E6
:102130000391029957EB01060499029679410491A3
:102140000399139E3944316014991E680968A1FBF4
:102150000617029E8E190499029679410491D9F8C6
:1021600000102668A1FB0617029E8E19049902969C
:1021700079410491159909682E68A1FB0617029E02
:102180008E19049902967941049117991668096885
:10219000A1FB0617029E8E190499029679410491BB
:1021A0000D99DAF800600968A1FB0617029E8E19E6
:1021B0000499029679410491DBF80010DCF8006084
:1021C000A1FB0617029E8919029104997941049195
:1021D000DEF80010D8F80060A1FB0617029E8E19E9
:1021E0000499029679410491BB491B9EA1F1040117
:1021F00036684968A6FB0117029E8E19049902965B
:102200007941B54E04911C99A6F104060968366817
:10221000A1FB0617029E891902910499466D4F4150
:10222000029971184FF000067E410496199E4FF0F6
:10223000000739443160D9F800101E68A1FB061769
:10224000049E89190491794103914FF0000151F1E5
:1022500000010291159926680968A1FB0667049997
:102260007618039904967941039102994FF000067C
:102270007141029117992E680968A1FB0617049E07
:102280008E19039904967941039102994FF0000643
:10229000714102910D9916680968A1FB0617049E09
:1022A0008E19039904967941039102994FF0000623
:1022B00071410291DBF80010DAF80060A1FB06170B
:1022C000049E8E19039904967941039102994FF067
:1022D000000671410291DEF80010DCF80060A1FBFD
:1022E0000617049E891904910399029E794103916E
:1022F0004FF00001714102911B99D8F80060096804
:10230000A1FB0617049E8E19039904967941039147
:1023100002994FF00006714102916F491C9EA1F194
:10232000040136684968A6FB0117049E8E190399BB
:1023300004967941039102994FF000067141664E6F
:1023400002911D99A6F1040609683668A1FB0617DB
:10235000049E8919049103994FF000067941039175
:10236000029956EB0107866D04997118049103993F
:102370004FF000064E414FF000017941CDE90216C1
:102380000499119E4FF000073944316015991E6879
:102390000968A1FB0617039E8E19039602997941DD
:1023A00002914FF0000151F1000104911799266844
:1023B0000968A1FB0617039E8E19029903967941BD
:1023C000029104994FF00006714104910D992E6815
:1023D0000968A1FB0617039E8E190299039679419D
:1023E000029104994FF0000671410491DBF800104E
:1023F0001668A1FB0617039E8E1902990396794170
:10240000029104994FF0000671410491DEF800102A
:10241000DAF80060A1FB0617039E8E190299039655
:102420007941029104994FF00006714104911B9982
:10243000DCF800600968A1FB0617039E8919039167
:102440000299049E794102914FF00001714104917B
:102450001C99D8F800600968A1FB0617039E8E1925
:10246000029903967941029104994FF00006714157
:10247000049119491D9EA1F1040136684968A6FB23
:102480000117039E8919039102994FF000064F41ED
:10249000049971410491C66D0399711803914FF02D
:1024A000000151EB070602960E4604994FF0000713
:1024B0007141049103993944C9F8001017991E68B5
:1024C0000968A1FB0617029E8E190499029657EB24
:1024D00001094FF0000101E02445000051F1000125
:1024E00003910D9926680968A1FB0617029E8E19B3
:1024F00057EB09010491029603994FF0000656EB41
:102500000109DBF800102E68A1FB0617029E8E1948
:102510000499029679414FF00006049156EB09099F
:10252000DEF800101668A1FB0617029E8E190499AA
:102530000296794104911B994FF0000656EB090968
:102540000968DAF80060A1FB0617029E8E1904994B
:102550000296794104911C994FF0000656EB090947
:102560000968DCF80060A1FB0617029E8919029138
:1025700004994FF00006794104911D9956EB090921
:10258000D8F800600968A1FB0667029971180291EA
:102590000499066E57EB01084FF0000151EB090753
:1025A000029971184FF0000656EB080956EB070820
:1025B000159E4FF00007394431600D991E68096877
:1025C000A1FB06174E468919894657EB08084FF0BC
:1025D000000151F100010291DBF800102668A1FB17
:1025E00006674946761857EB080902994FF000072D
:1025F00057EB0108DEF800102F68A1FB07178E19B2
:1026000057EB09094FF0000151EB08081B9904969C
:1026100016680968A1FB0617049E8919049157EBF7
:1026200009094FF0000151EB08081C99DAF8006025
:102630000968A1FB066704997118049157EB090911
:102640004FF0000151EB08071D99DCF800604FF0D6
:1026500000080968A1FB066C049971185CEB090C71
:102660004FF000067741466E71184FF0000656EBAA
:102670000C064FF0000C5CEB0707DDF85CC0414432
:10268000CCF80010DBF80010D3F800C04FF00009C0
:10269000A1FB0C1C8E195CEB07084FF0000151F1F7
:1026A000000CDEF800102768A1FB0717891957EB0B
:1026B00008084FF0000656EB0C0C1B9E2F6836687E
:1026C000A6FB076771181C9E57EB08081768366849
:1026D00059EB0C0CA6FB076771181D9E57EB0808F9
:1026E000DAF80070366859EB0C0CA6FB0767711816
:1026F00057EB0807866E59EB0C0C711859EB07065F
:1027000059EB0C07DDF834C04944CCF80010DEF872
:102710000010D3F800C01268A1FB0C1C8E191B9985
:102720005CEB07082768096859F1000CA1FB071743
:1027300089191C9E57EB08082F68366859EB0C0C5A
:10274000A6FB0767711857EB080659EB0C07DDF875
:1027500074C0DCF800C0ACFB022C51185CEB060620
:10276000C26E59EB070751184944CBF8001059EBDA
:1027700006021B9959EB07061F680968D4F800C0C8
:10278000A1FB07178A181C997E4159F100070968B7
:102790002D68A1FB0C1C89181D9A5CEB060659EBF1
:1027A00007071268A2FB052552187541016F59EB06
:1027B00007078E184E44CEF800601C991E6859EB2E
:1027C0000502096859EB0705A1FB0661B2184D41E6
:1027D0001D9924684F460968A1FB04148A18416FAB
:1027E0006C418D181B994D4457EB04020D601D99E7
:1027F0001B6857F100040968A1FB03138A18816F55
:102800006341C06F891850EB03021C984944016072
:102810001D9809EB020101601FB0BDE8F08F431A5B
:1028200080EA01024B401A434240D00F704700003B
:1028300070B5A0B00C46054616468021684601F0EA
:10284000D3FD10236A4621462846FEF791F831460B
:102850006846FEF74CFD20B070BD0A46FE49E7E72A
:1028600030B591B00D4604464021684601F0BCFDEC
:10287000012000902A4669462046FFF7D9FF2846E6
:10288000FEF708FC11B030BD10B5002305E000BF15
:1028900050F8234041F823405B1C9342F8D310BD0D
:1028A00030B5A1B00D4604468021684601F09CFD7C
:1028B000214610236A460846FEF75AF8294668461C
:1028C000FEF715FD21B030BD2DE9F04FADF2044DFE
:1028D0000646F0A9FFF7E4FF6A46F0A93046FFF785
:1028E000A7FF00244FEA0D0505EB841000F140021C
:1028F000F0A9FFF79DFF641C0D2CF5D9F0A9304617
:1029000001F0D6FD0024F0A90846FFF7C9FF641CBA
:10291000082CF8D3F0AA11463046FFF789FF0024AF
:10292000F0A90846FFF7BCFF641C052CF8D3F0AAF9
:1029300080A811468146FFF77BFF0024F0A90846D6
:10294000FFF7AEFF641C052CF8D3F0AA60A811466F
:102950008346FFF76DFF0024F0A90846FFF7A0FFAC
:10296000641C062CF8D3F0AA114690A8FFF760FF6C
:102970000024F0A90846FFF793FF641C072CF8D346
:10298000F0AA11466846FFF753FF0024F0A9084655
:10299000FFF786FF641C072CF8D3F0AA11463046D7
:1029A000FFF746FF0024F0A90846FFF779FF641CF3
:1029B000072CF8D3F0AA11465846FFF739FF002438
:1029C000F0A90846FFF76CFF641C072CF8D3F0AAA7
:1029D00020A811460546FFF72BFF0024F0A9084662
:1029E000FFF75EFF641C052CF8D3F0AA1146484699
:1029F000FFF71EFF0024F0A90846FFF751FF641CF3
:102A0000072CF8D3F0AA11463046FFF711FF002437
:102A1000F0A90846FFF744FF641C082CF8D3F0AA7D
:102A2000A0A811468246FFF703FF0024F0A908463C
:102A3000FFF736FF641C052CF8D3F0AA1146684650
:102A4000FFF7F6FE0024F0A90846FFF729FF641CF3
:102A5000062CF8D3F0AA11465046FFF7E9FE0024F1
:102A6000F0A90846FFF71CFF641C052CF8D3F0AA58
:102A700011465046FFF7DCFE0024F0A90846FFF798
:102A80000FFF641C052CF8D3F0AA50A8114680460D
:102A9000FFF7CEFE0024F0A90846FFF701FF641CF3
:102AA000052CF8D3F0AA11462846FFF7C1FE0024F2
:102AB000F0A90846FFF7F4FE641C052CF8D3F0AA31
:102AC00011465846FFF7B4FE0024F0A90846FFF768
:102AD000E7FE641C052CF8D3F0AA114630A8FFF7D6
:102AE000A7FE0024F0A90846FFF7DAFE641C062CB6
:102AF000F8D3F0AA11464046FFF79AFE0024F0A949
:102B00000846FFF7CDFE641C0C2CF8D3F0AAC0A831
:102B100011460546FFF78CFE0024F0A90846FFF792
:102B2000BFFE641C052CF8D3F0AA11464846FFF7F7
:102B30007FFE0024F0A90846FFF7B2FE641C052CB6
:102B4000F8D3F0AA11465846FFF772FE0024F0A908
:102B50000846FFF7A5FE641C052CF8D3F0AA114621
:102B60002846FFF765FE0024F0A90846FFF798FE07
:102B7000641C062CF8D3F0AAB0A811460546FFF74E
:102B800057FE0024F0A90846FFF78AFE641C082CB3
:102B9000F8D3F0AA11465846FFF74AFE0024F0A9E0
:102BA0000846FFF77DFE641C052CF8D3F0AA1146F9
:102BB0004046FFF73DFE0024F0A90846FFF770FEEF
:102BC000641C052CF8D3F0AAE0A811460746FFF7CD
:102BD0002FFE0024F0A90846FFF762FE641C072CB4
:102BE000F8D3F0AA11463846FFF722FE0024F0A9D8
:102BF0000846FFF755FE641C052CF8D3F0AA1146D1
:102C00004046FFF715FE0024F0A90846FFF748FEEE
:102C1000641C052CF8D3F0AA11465846FFF708FEAD
:102C20000024F0A90846FFF73BFE641C082CF8D3EB
:102C3000F0AA11464846FFF7FBFD0024F0A908461C
:102C4000FFF72EFE641C052CF8D3F0AA114630467F
:102C5000FFF7EEFD002401E020480000F0A908463F
:102C6000FFF71EFE641C082CF5D3F0AA114640A8FD
:102C7000FFF7DEFD0024F0A90846FFF711FE641CF3
:102C8000052CF8D3F0AA11465846FFF7D1FD0024D1
:102C9000F0A90846FFF704FE641C052CF8D3F0AA3F
:102CA00011464046FFF7C4FD0024F0A90846FFF78F
:102CB000F7FD641C082CF8D3F0AA114670A8FFF7A2
:102CC000B7FD0024F0A90846FFF7EAFD641C052CB7
:102CD000F8D3F0AA11463046FFF7AAFD0024F0A968
:102CE0000846FFF7DDFD641C052CF8D3F0AA114659
:102CF0006846FFF79DFD0024F0A90846FFF7D0FDC8
:102D0000641C052CF8D3F0AA11462846FFF790FD65
:102D10000024F0A90846FFF7C3FD641C052CF8D376
:102D2000F0AA1146D0A8FFF783FD0024F0A90846B9
:102D3000FFF7B6FD641C082CF8D3F0AA114610A8C2
:102D4000FFF776FD0024F0A90846FFF7A9FD641CF3
:102D5000062CF8D3F0AA11465046FFF769FD00256E
:102D60000024F0A90846FFF79BFD641C052CF8D34E
:102D7000F0AA11463846FFF75BFD6D1C312DEFD3ED
:102D80003146F0A801F094FB0DF2044DBDE8F08F40
:102D900010B590B00446694601F08AFB6846FFF71B
:102DA00093FD69460846FFF77BFD69460846FFF735
:102DB00077FD224669461046FFF73AFD10B010BD78
:102DC00070B50D46044601F073FB05F1400104F1B6
:102DD0004000BDE8704001F06BBB10B5044601F047
:102DE00071FB04F14000BDE8104001F06BBB10B571
:102DF0000446FEF705F904F14000BDE81040FEF777
:102E0000FFB870B516460C460546FDF725FE06F1DF
:102E1000400204F1400105F14000BDE87040FDF7BB
:102E20001BBE70B516460C460546FDF778FF06F149
:102E3000400204F1400105F14000BDE87040FDF79B
:102E40006EBF70B50D460446FEF7F9F805F1400176
:102E500004F14000BDE87040FEF7F1B810B504463B
:102E6000FEF718F904F14000BDE81040FEF712B972
:102E70002DE9F04788460021814615464FF0100A9B
:102E80004FEA010459F82400461858F82400304449
:102E900045F82400304600F046F9074655F824006E
:102EA000314600F040F9641C47EA00015445E9D37B
:102EB000BDE8F08770B50C46B0B000F140010546A2
:102EC0006A460E46FFF7D4FF10AA31462846FDF7A2
:102ED00026FF294620AA0846FFF7CAFF224610A966
:102EE0006846FFF7A5FC04F14002314620A8FFF731
:102EF0009FFC30B070BD2DE9F04700241F4690467E
:102F000089468246254612E05AF8250059F82510D0
:102F1000461A00F008F971423143012282EAD17168
:102F20002140321B084348F8252004466D1CBD4251
:102F3000EAD32046BCE72DE9F0410D46ADF5007D12
:102F4000144600F14001064660AA0F46FFF790FFC5
:102F500005F1400170AA88462846FFF789FF102333
:102F60006A4629463046FDF703FD102320AA414654
:102F70003846FDF7FDFC102340AA70A960A8FDF7B4
:102F8000F7FC40AD694620AE20232A462846FFF7CD
:102F9000B2FF2A46202331461046FFF7ACFF6846B1
:102FA00020A902462023FFF7A6FF4142624A0020E3
:102FB00060AB00BF52F820500D4043F82050401C39
:102FC0001028F7D304F1400140A8FEF790F910AAA9
:102FD000104660A9FFF74CFF21466846FEF787F9C7
:102FE0000DF5007DBDE8F08170B5A0B004466946DE
:102FF000FFF756FC10A904F140000E460546FFF706
:103000004FFC6A4631461046FDF726FD6846FFF73D
:10301000BFFE2846FDF7F4FF224669461046FFF73B
:1030200007FC2A4669461046FFF702FC13E470B518
:103030000D460446FFF711FC05F1400104F1400084
:10304000BDE8704009E470B50D460446FFF708FC82
:1030500005F1400104F14000BDE8704000E4F0B526
:10306000002501E020396D1C2029FBD80024531BCA
:103070000AE0161B771B00EB870700EB860657F864
:10308000047C46F8047C641CA342F2D8002405E0CA
:10309000D51A00EB85055B1C45F8044C9342F7D329
:1030A000002913D0521E0ED0C1F1200300EB820480
:1030B00050F8225054F8044CDC408D406C4040F8ED
:1030C0002240521EF2D102688A400260F0BD30B543
:1030D00000224B1E0BE000BF00EB820550F822409F
:1030E0002D79640884EAC57440F82240521C9A4243
:1030F000F2D300EB810050F8041D4908016030BD97
:10310000491E00290BDD00EB810350F8212053F804
:10311000043C520082EAD37240F82120F0E70168B3
:10312000490001607047431A80EA01024B401A438C
:103130004240D00F70470000E04400002DE9F0410C
:103140000C46C0B0904600F180011E46054620AAFC
:103150000F46FFF766FE6A4639462846FFF751FEDE
:1031600020A90846FFF7A6FE69460846FFF7A2FE1B
:1031700004F18002154620A93046FFF7DCFE224606
:1031800029466846FFF7D7FE6A4620A91046FFF792
:1031900048FE20AA69464046FFF7CDFE2A4620A9F0
:1031A0001046FFF72EFE2A4669461046FFF7C3FE7B
:1031B00040B0BDE8F0812DE9F04190461F460E4633
:1031C0004022069DFFF760FB002406E031463B46A7
:1031D00042460846FFF7B2FF641CAC42F6DBE8E764
:1031E0002DE9F0410E46904600F180011C4605464F
:1031F00003F180020F46FFF714FE04F58072394692
:103200002846FFF7FEFD21463846FFF753FE2246CB
:1032100011460846FFF7F5FD41462046FFF74AFEF6
:10322000224611460846FFF7ECFD31462846FFF7D7
:1032300041FE324611460846FFF7E3FD3146BDE840
:10324000F0410846FFF736BE70B50E46C0B000F13B
:10325000800104466A460D46FFF7D3FD20AA2946A1
:103260002046FFF7DEFD224606F180016846FFF7A3
:1032700062FE2A4606F5807120A8FFF75CFE6A46CA
:1032800020A91046FFF757FE6A4631461046FFF761
:1032900052FE20AA29462046FFF7B3FD2A461146D2
:1032A0002046FFF7BEFD20A90846FFF703FE29468A
:1032B0000846FFF7FFFD2246694620A8FFF7A1FD5B
:1032C0006A4611462846FFF7ACFD224620A9104663
:1032D000FFF731FE2A4669461046FFF72CFE40B044
:1032E00070BD2DE9F0410C46ADF5607D904600F1D2
:1032F00080011E46054660AA0F46FFF792FD20A9F1
:1033000060A8FFF7D7FD6A4639462846FFF779FDE2
:1033100040A96846FFF7CEFD80AA694660A8FFF77E
:1033200070FD60AA11466846FFF77BFD694680A8DC
:10333000FFF7C0FD6A4640A91046FFF772FD6A46D6
:1033400020A91046FFF76DFDA0AA314640A8FFF75F
:10335000F2FD40AAA0A91046FFF7EDFDC0AA20A9E2
:103360004046FFF7E8FD20AAC0A91046FFF7E3FD9D
:1033700040AA114620A8FFF754FD20AAC0A9A0A882
:10338000FFF74FFD6A4620A91046FFF7D4FD20AA9B
:10339000694640A8FFF735FD20A90846FFF78AFDDA
:1033A000224620A980A8FFF7C6FD6A46114640A81C
:1033B000FFF737FD69460846FFF77CFD04F1800200
:1033C000694660A8FFF7B7FD0DF5607DF1E62DE9D0
:1033D000F04190461F460E464022069DFFF754FAE4
:1033E000002406E031463B4642460846FFF779FF97
:1033F000641CAC42F6DBDCE62DE9F04389469046DE
:1034000000F18001ADF5217D06461C461A460F46A7
:10341000FFF707FD40A92046FFF74CFD04F18002AD
:10342000154639463046FFF7ECFC60A92846FFF701
:1034300041FD80AA60A940A8FFF7E3FC20AA294625
:103440002046FFF7DEFC20A90846FFF733FD20AA3F
:1034500080A91046FFF7E5FC80AA20A960A8FFF725
:10346000D0FC20AA40A91046FFF7CBFC6A4620A951
:1034700040A8FFF7C6FC6A4611460846FFF7C1FCA4
:103480006A46114660A8FFF7BCFC4A46694680A818
:10349000FFF751FD6A4680A960A8FFF7B2FC6A46B3
:1034A00011460846FFF7ADFC6A46114640A8FFF7F3
:1034B000A8FC6A46114620A8FFF73DFD40AA4946F0
:1034C0006846FFF7AEFC424640A94846FFF799FC24
:1034D0000DF5217DBDE8F08370B50E46E0B000F13A
:1034E000800104466A460D46FFF78BFC20AA294658
:1034F0002046FFF796FC6A4631461046FFF71BFD53
:1035000020AA06F180011046FFF715FD40AA20A968
:103510006846FFF776FC6A46114620A8FFF781FC53
:1035200040A90846FFF7C6FC69460846FFF7C2FCFB
:10353000224640A91046FFF7FEFC2A46694610467F
:10354000FFF7F9FC60B070BD70B5ADF5007D1446B5
:103550000D46064620AAFFF7EEFC6A4620A9204643
:10356000FFF7E9FC6846FFF73FFD40AA69462046A1
:10357000FFF7E1FC60AA294640A8FFF7DCFC2A46D9
:10358000314640A8FFF7D7FC2246694620A8FFF73E
:10359000D2FC314660A8FFF713FC0DF5007D70BD2D
:1035A000F0B5E1B00C4605461E461746802140A8FE
:1035B00000F01AFF40A9D74800F07AFF20AA214660
:1035C0002846FFF71EFC6A4621462846FFF7B3FC53
:1035D000324620A93846FFF7AEFC3246114668460F
:1035E000FFF70FFC6A4639461046FFF7A4FC324647
:1035F00040A91046FFF715FC6A4611460846FFF73A
:1036000000FC20AA39461046FFF7FBFB6A4611462C
:103610000846FFF7F6FB31460846FFF74BFC6846C5
:10362000FFF7E2FC324669461046FFF784FC32465B
:1036300020A91046FFF7F5FB61B0F0BD30B50D468F
:10364000C1B014461146FFF735FC20A92846FFF704
:1036500031FC20A96A460846FFF7D3FB6A461146AB
:103660002046FFF7DEFB6A4620A91046FFF7D9FB8C
:10367000224620A96846FFF7D4FB20A90846FFF799
:1036800019FC224620A91046FFF755FC6A46114650
:103690000846FFF7B6FB6A4611460846FFF7B1FB3E
:1036A00020A96846FFF706FC6A4620A91046FFF7E6
:1036B00042FC6A4611460846FFF7A3FB6A461146DC
:1036C0000846FFF79EFB2046FFF78EFC2246694620
:1036D0001046FFF730FC41B030BD2DE9F0430D46F8
:1036E000E1B0914600F18001984604466A460F46D3
:1036F000FFF787FB20AA39462046FFF792FB2146B9
:103700006846FFF7D7FB05F1800140AA0E46284620
:10371000FFF787FB40A8FFF7A1FB2A46314610467A
:10372000FFF76FFB6A4640A91046FFF704FC3946D5
:1037300020A8FFF7BFFB20AA29461046FFF7FBFB96
:1037400040AA39462046FFF76CFB22463946104610
:10375000FFF7F1FB2A46414640A8FFF7ECFB324653
:1037600020A96846FFF75DFB3A4611462846FFF759
:1037700048FB2A4620A96846FFF743FB3A4640A982
:103780001046FFF7D8FB31460846FFF793FB294662
:103790000846FFF78FFB324649461046FFF7CBFB42
:1037A00061B097E62DE9FF4FADF5217D8946AEA9C1
:1037B0004FF4807491E8600898469246214660A8CC
:1037C00000F012FE2146684600F00EFE802140A85F
:1037D00000F00AFE0024B5B3FD2740A94D4800F0D3
:1037E00067FE40AA11460846FFF70BFB40AA1146A8
:1037F0005846FFF706FB40A90846FFF722FB40A901
:103800000846FFF71EFB60A94846FFF7D9FA80A9D2
:10381000404800F04DFE69465046FFF7D1FA3D485A
:1038200020A900F045FE3146A198FFF7C9FA06F13C
:1038300080018946374800F03BFE06F1C00000F0E9
:1038400041FE00251EE0FFE7FA27C6E7691158F898
:10385000210005F01F01C84000F0010080EA0401CA
:1038600004464A426946304600F012F840AB324600
:10387000694660A8FFF731FF6A4649461046FFF7E0
:103880005AFB6D1CBD42E1DB0DF5257DBDE8F08FD7
:10389000F0B5002350F8234051F8236025467440CA
:1038A0001440654040F8235051F8235000EB830644
:1038B000654041F8235001EB830456F8805F54F8CB
:1038C00080CF2F4685EA0C0515406F40376027688A
:1038D0005B1C6F40276056F8405C54F840CC2F4684
:1038E00085EA0C0515406F4046F8407C54F8407C52
:1038F0006F4044F8407C356CD4F840C02F4685EAD0
:103900000C0515406F403764266C6E402664102B02
:10391000C0D3F0BD604800002DE9F0411E461546B9
:103920000F46044600F0C4FD07F1400104F14000D9
:1039300000F0BEFD294604F1800000F0B9FD05F15C
:10394000400000F0BFFD314604F1C00000F0B0FDC2
:1039500006F1400104F58070BDE8F04100F0A8BD1B
:10396000034630B4002002460A54401C8028FBD392
:1039700000228C18985C88549818521C90F83F00CC
:1039800084F840003F2AF4D330BC0846FFF74FBB11
:1039900010B50446082100F024FC20220023204614
:1039A00000F044FCE07F00F00300E07710BD10B5AC
:1039B0000446082100F015FC20220023204600F0D8
:1039C00035FCE07F00F00F00E07710BD2DE9F04FEF
:1039D000ADF6CC7D894605464FF4807421460DF640
:1039E0008C1000F001FD21460DF68C2000F0FCFC4F
:1039F00021460DF68C3000F0F7FC80210DF68C404E
:103A000000F0F2FC80210DF60C5000F0EDFC80215E
:103A10000DF5716000F0E8FC00273C463E460DF5D0
:103A200069630DF561620DF55961FE48FFF774FF9A
:103A30000DF68C330DF68C220DF68C11FA48FFF73B
:103A40006BFF0DF60C21F948CDF8A01F00F030FDFA
:103A50000DF60C31F548CDF89C1F00F029FD0DF650
:103A60000C41F248CDF8981F00F022FD0DF68C4174
:103A7000EE4800F01DFD0DF68C410DF60C52084687
:103A8000FFF7BFF90DF571620DF68C0100208DE88E
:103A900007002B46803A0DF561610DF55960FFF77F
:103AA00081FE0DF60C1001250DF10C0A0DF6A47B1C
:103AB00001901FE00AEB042188460DF68C00FFF709
:103AC0007FF908F180010198FFF77AF9D8484BF89F
:103AD00024700DF68C0150F826800DF60C534FEA39
:103AE000480000900DF68C420846641C761CFFF7D7
:103AF00062FB4744C5F17D00B842DBD80DF20C7380
:103B00000DF60C520DF68C410DF68C00FFF768FB9C
:103B1000002706E00AEB07200DF20C71FFF794FB7B
:103B20007F1CA742F6D30DF20C710DF68C10FFF737
:103B30008BFB0DF20C710DF68C20FFF785FB0DF25F
:103B40000C710DF68C30FFF77FFB0AEB0427A7F50D
:103B500080700DF68C01FFF733F9A7F18000019911
:103B6000FFF72EF90BEB8400641E50F8047C6D1CEB
:103B70007D2DBFD30DF20C730DF60C520DF68C415A
:103B80000DF68C00FFF72CFB0DF20C710DF68C106E
:103B9000FFF75AFB0DF20C710DF68C20FFF754FB6A
:103BA0000DF20C710DF68C30FFF74EFBDDF8982FFF
:103BB000DDF89C1FDDF8A00FFFF7C6FC0DF68C1298
:103BC0001046DDF8A01FFFF7B6F90DF68C2210465F
:103BD000DDF89C1FFFF7AFF90DF68C321046DDF8CB
:103BE000981FFFF7A8F949460DF68C1000F002FB6C
:103BF00009F17E010DF68C2000F0FCFA09F1FC01C0
:103C00000DF68C3000F0F6FA0DF6CC7D0020BDE804
:103C1000F08F2DE9F35FADF5885D89460DF68C2BAD
:103C20004FF48071584600F0DFFB4FF480710DF6C1
:103C30008C3000F0D9FB4FF480710DF68C4000F011
:103C4000D3FB0DF68C578021384600F0CDFB0DF6E6
:103C50000C6A8021504600F0C7FB802107F52770D1
:103C600000F0C2FB00252C462E460DF6A8730DF67B
:103C700028720DF6A8616C48FFF74EFE0DF68C43D6
:103C80000DF68C3259466748FFF746FE0DF60C31AB
:103C90006648CDF89C1E00F00BFC0DF60C41634805
:103CA000CDF8941E00F004FC0DF60C515F48CDF8E1
:103CB000901E00F0FDFB39465C4800F0F9FB3A46E7
:103CC00011460846FFF79DF851463846FFF778F849
:103CD0005046FFF78CF80DF68C1B07F527725946F6
:103CE00001208DE807000DF58050803AD0F80031B2
:103CF0000DF628710DF6A860FFF754FD0DF60C20A7
:103D000001270DF10C0A019020E000BF0AEB04210D
:103D100088465846FFF754F808F180010198FFF7EC
:103D20004FF841F2A8006844594640F824504148F1
:103D30000DF68C530DF60C6250F826800846641C74
:103D4000761CCDF80080FFF742FB4544C7F19F0089
:103D5000A842DBD80DF60C0843460DF68C520DF642
:103D60000C615846FFF748FB002505E00AEB0520EB
:103D70004146FFF7B1FB6D1CA542F7D345464146CE
:103D80000DF68C20FFF7A8FB29460DF68C30FFF7C7
:103D9000A3FB29460DF68C40FFF79EFB0AEB04259A
:103DA000A5F580705946FFF70BF8A5F18000019941
:103DB000FFF706F841F2A800684400EB8400641E97
:103DC00050F8045C7F1C9F2FC0D30DF60C063346C1
:103DD0000DF68C520DF60C615846FFF70DFB0DF6F3
:103DE0008C2431462046FFF777FB0DF68C353146A3
:103DF0002846FFF771FB31460DF68C463046FFF73B
:103E00006BFBDDF8902EDDF8941EDDF89C0EFFF7BD
:103E10009BFB22461046DDF89C1EFFF78CF82A46D5
:103E2000104609E0A0450000E046000060480000A0
:103E3000A0480000904A0000DDF8941EFFF77BF8D0
:103E400032461046DDF8901EFFF775F849462046C9
:103E500000F0D0F909F17E01284600F0CBF909F114
:103E6000FC01304600F0C6F942B00DF5805D00203F
:103E7000BDE8F09F2DE9F74FADF5546D0D46814635
:103E800080210DF68C3000F0AFFA80210DF60C0089
:103E900000F0AAFA80210DF60C4000F0A5FA0027E8
:103EA0003C463E460DF68C012846FFF759FD0DF6BF
:103EB0000C118A4605F17E00FFF752FD0DF68C11BC
:103EC000884605F1FC00FFF74BFD0DF60C4342461A
:103ED00051460DF68C00FFF763FBD1490DF60C023D
:103EE0000846FCF7B9FD0DF68C320DF60C010DF607
:103EF0000C40FEF786FF0DF60C0211460846FCF753
:103F0000ABFD0DF60C420DF20C7100208DE80700A0
:103F10004B46424651460DF68C00FFF743FC012507
:103F20000DF10C090DF61C5A0DF28C7B20E000BF40
:103F300009EB042188460DF20C70FEF741FF08F1F1
:103F400080015846FEF73CFFB6484AF824700DF24F
:103F50000C7150F826800DF60C034FEA48000090D3
:103F60000DF68C320846641C761CFFF724F9474492
:103F7000C5F17D00B842DBD80DF60C230DF60C021E
:103F80000DF68C310DF20C70FFF72AF9002706E0D0
:103F900009EB07200DF60C21FFF756F97F1CA7420D
:103FA000F6D309EB0427A7F580700DF20C71FEF72C
:103FB00007FFA7F180005946FEF702FF0AEB8400D5
:103FC000641E50F8047C6D1C7D2DD1D30DF60C239E
:103FD0000DF60C020DF68C310DF20C70FFF700F9A6
:103FE0000DF60C010846FEF72CFF0DF68C320DF68F
:103FF0000C011046FEF715FF0DF60C010846FEF702
:1040000020FF0DF549620DF60C010DF68C30FFF71F
:1040100015FB0DF54960DDF8481D00F0EBF80020B8
:104020000DF64C5DF3E52DE9F74FADF5646D0E46E9
:10403000814680210DF68C3000F0D6F980210DF6F6
:104040008C2000F0D1F980210DF60C3000F0CCF975
:1040500000252C462F460DF60C113046FFF780FC4C
:104060000DF68C118A4606F17E00FFF779FC0DF6FD
:104070000C21884606F1FC00FFF772FC0DF60C33AC
:10408000424651460DF60C10FFF78AFA64490DF6C8
:104090008C220846FCF7E0FC0DF68C320DF68C21E4
:1040A0000DF60C30FEF7ADFE0DF68C2211460DF626
:1040B0000C30FEF7B6FE0DF60C320DF60C010120A9
:1040C0008DE807004B46424651460DF60C10FFF7AF
:1040D00069FB01260DF10C090DF6146A0DF68C0B27
:1040E0001FE000BF09EB042188460DF60C00FEF727
:1040F00067FE08F180015846FEF762FE4A484AF81A
:1041000024500DF60C0150F827800DF68C330DF677
:104110008C220846641C7F1CCDF80080FFF757F9FD
:104120004544C6F19F00A842DCD80DF60C430DF6BD
:104130008C320DF68C210DF60C00FFF75DF9002591
:1041400007E000BF09EB05200DF60C41FFF7C4F9AD
:104150006D1CA542F6D309EB0425A5F580700DF67C
:104160000C01FEF72DFEA5F180005946FEF728FE52
:104170000AEB8400641E50F8045C761C9F2ED0D39A
:104180000DF60C430DF68C320DF68C210DF60C005D
:10419000FFF732F90DF60C320DF68C210DF68C304E
:1041A000FEF72FFE0DF60C3211460846FEF729FEEB
:1041B0000DF68C320DF68C211046FEF732FE0DF511
:1041C00059620DF68C310DF60C30FFF737FA0DF50C
:1041D0005960DDF8481E00F00DF800200DF64C6D1A
:1041E00015E50022134602E040F82230521C8A42B4
:1041F000FAD3704710B5A0B00C466946FEF723FF0E
:104200000020694623180A5C22540A18401C92F8C0
:10421000402083F83F203F28F4D320B010BD000099
:1042200060480000A0480000904A0000002070474D
:104230004548804745480047FEE7FEE7FEE7FEE7C2
:10424000FEE7FEE7FEE7FEE7FEE7FEE7FEE7FEE746
:10425000FEE7FEE7FEE7FEE7FEE7FEE7FEE7FEE736
:10426000FEE7FEE7FEE7FEE7FEE7FEE7FEE7FEE726
:10427000FEE7FEE7FEE7FEE7FEE7FEE7FEE7FEE716
:10428000FEE7FEE7FEE7FEE7FEE7FEE7FEE7FEE706
:10429000FEE7FEE7FEE7FEE7FEE7FEE7FEE7FEE7F6
:1042A000FEE7FEE7FEE7FEE7FEE7FEE7FEE7FEE7E6
:1042B000FEE7FEE7FEE7FEE7FEE7FEE7FEE7FEE7D6
:1042C000FEE7FEE7FEE7FEE7FEE7FEE7FEE7FEE7C6
:1042D000FEE7FEE7FEE7FEE7FEE7FEE7FEE7FEE7B6
:1042E000FEE7FEE7FEE7FEE7FEE7FEE7FEE7FEE7A6
:1042F000FEE7FEE7FEE7FEE7FEE7FEE7FEE7FEE796
:10430000FEE7FEE7FEE7FEE7FEE7FEE7FEE7FEE785
:10431000FEE7FEE7FEE7FEE7FEE7FEE7FEE7FEE775
:10432000FEE7FEE7FEE7FEE7FEE7FEE7FEE7FEE765
:10433000FEE7FEE7FEE7FEE7FEE7FEE70448054985
:10434000034A054B7047000065430000010200006E
:1043500068000020688000206800002007490648A7
:10436000086070470648016841F470010160034924
:1043700001480860704700000024F400000000209D
:1043800088ED00E010B5203AC0F00B80B1E818507D
:10439000203AA0E81850B1E81850A0E81850BFF42F
:1043A000F5AF5FEA027C24BFB1E81850A0E81850CE
:1043B00044BF18C918C0BDE810405FEA827C24BF22
:1043C00051F8043B40F8043B08BF7047D20728BFB0
:1043D00031F8023B48BF11F8012B28BF20F8023BFF
:1043E00048BF00F8012B70474FF0000200B513469C
:1043F00094469646203922BFA0E80C50A0E80C5005
:10440000B1F12001BFF4F7AF090728BFA0E80C50B5
:1044100048BF0CC05DF804EB890028BF40F8042BAE
:1044200008BF704748BF20F8022B11F0804F18BF1B
:1044300000F8012B7047704770477047754600F0D1
:104440002BF8AE4605006946534620F00700854626
:1044500018B020B5FFF772FFBDE820404FF000060E
:104460004FF000074FF000084FF0000B21F007015C
:10447000AC46ACE8C009ACE8C009ACE8C009ACE89F
:10448000C0098D46704710B50446AFF30080204642
:10449000BDE81040FBF7FDBE004870470400002057
:1044A00001491820ABBEFEE726000200704700005D
:1044B0005FF0000250F8223041F82230521C102ADE
:1044C000F8D3704700210A4640F82120491C1029E2
:1044D000FAD370474FF04070E1EE100A70470000C9
:1044E000FFFFFFFFFFFFFFFFFFFFFFFFFFFFFFFFDC
:1044F000FFFFFFFFFFFFFFFFFFFFFFFFFFFFFFAB20
:10450000A0E71122DA5B0813AF7D7E7BC8F69B1B08
:10451000D0A477DABDC645601E1E8141F566400015
:10452000000000000000000000000000000000008B
:10453000000000000000000000000000000000ACCF
:10454000A0E71122DA5B0813AF7D7E7BC8F69B1BC8
:10455000D0A477DABDC645601E1E8141F5664000D5
:10456000FEFFFFFFFFFFFFFFFFFFFFFFFFFFFFFF5C
:10457000FFFFFFFFFFFFFFFFFFFFFFFFFFFFFF57F3
:1045800041CF2344B4B710265EFBFCF690ED3737DD
:10459000A049EFB47B8D8BC03C3C0283EACD800008
:1045A000AF55D886A74AEFE73B4DB33EF05857EDDD
:1045B000A96AA8352517AE092327627DC09C7B23F5
:1045C0002D93E7A4CB84A2E33FE6C576911D48274F
:1045D000BF716E5CF53F326A7387FBA631CC2E004B
:1045E000B820A6904E2ED064F1B9D4378512B8DA2F
:1045F000988F228A7BF7AD4B1B7DFBD1F9BD5D0FF8
:10460000CC0D1A8E28DBC4BEDB7506E865866AE72A
:10461000639492122E256F6DCCFA6314BD8831001D
:10462000565DE85D02419DB7869616DFA97D860B33
:104630007D821C0268530E745CF27B15725D6120F2
:104640005B9F9B3C019015FFEA6CC1E8ADDC84C820
:10465000014E72BF535ED0EB8C74A5FDF8FE3200A4
:1046600006800AAA49E8E212E8A135860047CF4150
:10467000D7AE9807A720D79CCF04CF2FB420A8424D
:10468000B188AE2AD3BAF97BBE0B09547A1219F657
:10469000AA8E40568F0DB11CEBEDC0C3546B1D00AC
:1046A00036ACBA1C9354DB34C4F0D58DCB180A4217
:1046B0004DF4C0481A8C00324DD4CFB172A73B3BA9
:1046C0001535F1DA8F054BA7B417EC7ECAC95F091F
:1046D000F820F1289D828E4489A416EDC31E260081
:1046E00027C70BFAF437DE7E1C9498855CECF8F74C
:1046F000C8F5B516B51955D18262A3879BACD5F61E
:104700002E950EB305F1197BEEEBB425208BBD136E
:10471000A279C54E7FD2967BDEE5B7CA5008140059
:104720002D7B7BAE9D906477AB11492816BB8A57D1
:104730004DBFA646D1BFE276F002AA234B0424481F
:10474000F321A31289040511C1100FCF82E4A2B88E
:10475000852015E20B7DFF42523322C599E51800F2
:10476000208838FB20C55642130AAFBAC3D74F740E
:10477000B8BC2CB1DD2D6A4BF87D427FE22668E49F
:104780001BA605D53C664AFE95C625F0BAA1B3D650
:10479000BD00CC8F2BB63B7C6C74354ADEFD3A00F5
:1047A000CBDFC0E6D11C60753EF9589B2307901AF9
:1047B000AC0721C680BEF1C108FF298F893B517F1C
:1047C000B2F7E143FFED0BEAD0E6BA8C01946D2C11
:1047D0007246D8BC310D433A83FECC2E89260D009B
:1047E000A10730EA2AD619111BAE4BE0A42A70E3C8
:1047F000E790F9597D6FB99AC01933B4E84084F550
:10480000759748E1BE3481AFAA9251904E77F7E791
:104810003980E90893E04AF51261A841A0F71E002B
:104820001F011D64CFA08952B9D2FE897125889BD2
:104830007AF1C88DD565B3A3EC68F1EFB67AC55BA4
:1048400023444DD88B99519E95563BACCB9989BF4B
:10485000B6CD14CE7B12E9467117B8E8FC6C3F0068
:10486000F90300000000000000000000000000004C
:10487000000000000000000000000000000000B484
:10488000B4D2DEA66E1ACB637DB37E668D9D685171
:104890004241B21AC777CD8A53590FC6AEFB2600E4
:1048A0003D00000020000000100000000800000093
:1048B00004000000020000000100000001000000F0
:1048C00002000000010000000100000004000000E0
:1048D00002000000010000000100000002000000D2
:1048E00001000000010000000800000004000000BA
:1048F00002000000010000000100000002000000B2
:10490000010000000100000004000000020000009F
:104910000100000001000000020000000100000092
:10492000010000001000000008000000040000006A
:104930000200000001000000010000000200000071
:10494000010000000100000004000000020000005F
:104950000100000001000000020000000100000052
:104960000100000008000000040000000200000038
:104970000100000001000000020000000100000032
:10498000010000000400000002000000010000001F
:104990000100000002000000010000000100000012
:1049A0001D000000100000000800000004000000CE
:1049B00002000000010000000100000002000000F1
:1049C00001000000010000000400000002000000DF
:1049D00001000000010000000200000001000000D2
:1049E00001000000080000000400000002000000B8
:1049F00001000000010000000200000001000000B2
:104A0000010000000400000002000000010000009E
:104A10000100000002000000010000000100000091
:104A20000D0000000800000004000000020000006B
:104A30000100000001000000020000000100000071
:104A4000010000000400000002000000010000005E
:104A50000100000002000000010000000100000051
:104A6000050000000400000002000000010000003A
:104A70000100000002000000010000000100000031
:104A80000200000001000000010000000100000021
:104A90004700000026000000150000000D00000087
:104AA00008000000040000000200000001000000F7
:104AB00001000000020000000100000001000000F1
:104AC00004000000020000000100000001000000DE
:104AD00002000000010000000100000005000000CD
:104AE00004000000020000000100000001000000BE
:104AF00002000000010000000100000002000000B0
:104B00000100000001000000010000000900000099
:104B1000050000000300000002000000010000008A
:104B20000100000001000000010000000200000080
:104B3000010000000100000001000000040000006E
:104B40000200000001000000010000000100000060
:104B50000200000001000000010000001100000040
:104B60000900000005000000030000000200000032
:104B70000100000001000000010000000100000031
:104B80000200000001000000010000000100000020
:104B9000040000000200000001000000010000000D
:104BA0000100000002000000010000000100000000
:104BB00008000000040000000200000001000000E6
:104BC00001000000010000000200000001000000E0
:104BD00001000000040000000200000001000000CD
:104BE00001000000020000000100000001000000C0
:104BF0002100000011000000090000000500000075
:104C0000030000000200000001000000010000009D
:104C1000010000000100000002000000010000008F
:104C2000010000000100000004000000020000007C
:104C3000010000000100000001000000020000006F
:104C40000100000001000000080000000400000056
:104C5000020000000100000001000000010000004F
:104C6000020000000100000001000000040000003C
:104C7000020000000100000001000000020000002E
:104C8000010000000100000010000000080000000A
:104C9000040000000200000001000000010000000C
:104CA00001000000020000000100000001000000FF
:104CB00004000000020000000100000001000000EC
:104CC00002000000010000000100000008000000D8
:104CD00004000000020000000100000001000000CC
:104CE00002000000010000000100000004000000BC
:104CF00002000000010000000100000002000000AE
:104D00000100000001000000284D0000000000200C
:104D1000040000003C0200002C4D000004000020B4
:0C4D200064800000580200000024F40031
:0400000500000201F4
:00000001FF
