:020000040000FA
:1000000068800020855E00008D5E00008F5E00002D
:10001000915E0000935E0000955E0000000000000D
:10002000000000000000000000000000975E0000DB
:10003000995E0000000000009B5E00009D5E0000D5
:100040009F5E0000A15E0000A35E0000A55E0000B0
:10005000A75E0000A95E0000AB5E0000AD5E000080
:10006000AF5E0000B15E0000B35E0000B55E000050
:10007000B75E0000B95E0000BB5E0000BD5E000020
:10008000BF5E0000C15E0000C35E0000C55E0000F0
:10009000C75E0000C95E0000CB5E0000CD5E0000C0
:1000A000CF5E0000D15E0000D35E0000D55E000090
:1000B000D75E0000D95E0000DB5E0000DD5E000060
:1000C000DF5E0000E15E0000E35E0000E55E000030
:1000D000E75E0000E95E0000EB5E0000ED5E000000
:1000E000EF5E0000F15E0000F35E0000F55E0000D0
:1000F000F75E0000F95E0000FB5E0000FD5E0000A0
:10010000FF5E0000015F0000035F0000055F00006C
:10011000075F0000095F00000B5F00000D5F00003B
:100120000F5F0000115F0000135F0000155F00000B
:10013000175F0000195F00001B5F00001D5F0000DB
:100140001F5F0000215F0000235F00003D5F000093
:1001500000000000000000003F5F0000415F000061
:10016000435F0000455F000000000000475F0000A3
:10017000495F00004B5F00004D5F00004F5F0000D3
:10018000515F0000535F0000555F0000575F0000A3
:10019000595F00005B5F00005D5F00005F5F000073
:1001A000615F0000635F0000655F0000675F000043
:1001B000695F00006B5F00006D5F00006F5F000013
:1001C000715F0000735F0000755F0000775F0000E3
:1001D000795F00007B5F00007D5F00007F5F0000B3
:1001E000815F0000835F0000855F0000875F000083
:1001F000895F00008B5F00008D5F00008F5F000053
:1002000000F002F800F03CF80AA090E8000C8244EC
:100210008344AAF10107DA4501D100F031F8AFF2C9
:10022000090EBAE80F0013F0010F18BFFB1A43F0D4
:1002300001031847EC6700000C680000103A24BF67
:1002400078C878C1FAD8520724BF30C830C144BF3B
:1002500004680C607047000000230024002500267D
:10026000103A28BF78C1FBD8520728BF30C148BF19
:100270000B6070471FB505F059FF1FBD10B510BDCD
:1002800005F006FF1146FFF7F5FF00F09EFB05F0B5
:1002900024FF03B4FFF7F2FF03BC05F02BFF0000BF
:1002A00038B40B0C89B20C4685B2000C6C435D432C
:1002B0004143434328042D0C24186B4108040D0CC2
:1002C00024186B411460536038BC7047A0FB0101D7
:1002D000106051607047F8B478C878C278C878C2A6
:1002E00078C80F68DB194F687C418F687D41CF6803
:1002F0007E4178C278C80F697B414F697C418F6924
:100300007D41CF697E4178C20B6A53F100034C6A8C
:1003100054F100048D6A55F10005CE6A56F10006CD
:1003200078C20B6B53F100034C6B54F100048D6BDE
:1003300055F10005CE6B56F10006002757F1000776
:10034000F8C2F8BC7047F8B401F1200191E87800D8
:100350000768DB1947687C4187687D41C7687E4133
:1003600078C191E8780007697B4147697C418769DA
:100370007D41C7697E4178C191E87800076A7B4179
:10038000476A7C41876A7D41C76A7E4178C191E8AE
:100390007800076B7B41476B7C41876B7D41C76B66
:1003A0007E41002757F10007F8C1F8BC7047F8B448
:1003B00001F1400191E878000768DB1947687C414A
:1003C00087687D41C7687E4178C191E878000769F8
:1003D0007B4147697C4187697D41C7697E4178C11E
:1003E000036A0F687B41446A54F10004856A55F141
:1003F0000005C66A56F1000678C1036B53F100038D
:10040000446B54F10004856B55F10005C66B56F141
:10041000000678C1F8BC7047F0B543464C465546D7
:100420005E467FB4844692468B46104630C80830FC
:10043000CCC903B42E4611462D1B804145402D1AD0
:10044000C91ABF417940C91B47408946A846A2FB4B
:100450000401A3FB062376405218734149464546E2
:100460008046A1FB05107940784064407F105141DF
:1004700042416741404609185A417B41644603C4E2
:1004800010B403B45146924633C922462F46121A7D
:100490008F41B64172407740921BB74184B45A46AF
:1004A0009B460FCA801A9941BF4178407940C01BD2
:1004B000B9417740BC4603B42E4611462D1B8041FE
:1004C00045402D1AC91ABF417940C91B474089468A
:1004D000A846A2FB0401A3FB0623764052187341F1
:1004E000494645468046A1FB051079407840644066
:1004F0007F10514142416741404609185A417B41B2
:1005000054465D46764000196941724173419246F6
:100510009B463CBC03B42E4611462D1B80414540F2
:100520002D1AC91ABF417940C91B47408946A846C0
:10053000A2FB0401A3FB06237640521873414946EF
:1005400045468046A1FB05107940784064407F1005
:10055000514142416741404609185A417B4130BCF4
:100560006646674670407140724073407610604145
:10057000694154415D415240564157410CBC90463F
:10058000994612184B415046594644414D41464107
:100590004F4101BC0CC006BC01B4F0B48A4693467E
:1005A00030C90CCA2E4611462D1B804145402D1ADC
:1005B000C91ABF417940C91B47408946A846A2FBDA
:1005C0000401A3FB06237640521873414946454671
:1005D0008046A1FB05107940784064407F1051416E
:1005E00042416741404609185A417B4103B4514694
:1005F000924633C922462F46121A8F41B6417240A5
:100600007740921BB74184B45A469B460FCA801A62
:100610009941BF4178407940C01BB9417740BC4601
:1006200003B42E4611462D1B804145402D1AC91A90
:10063000BF417940C91B47408946A846A2FB040137
:10064000A3FB06237640521873414946454680462F
:10065000A1FB05107940784064407F105141424130
:100660006741404609185A417B4154465D467640F1
:10067000001969417241734192469B463CBC03B4E8
:100680002E4611462D1B804145402D1AC91ABF41E7
:100690007940C91B47408946A846A2FB0401A3FB39
:1006A0000623764052187341494645468046A1FBD1
:1006B00005107940784064407F10514142416741C4
:1006C000404609185A417B4130BC66466746704037
:1006D00071407240734076106041694154415D4100
:1006E0005240564157410CBC9046994612184B4116
:1006F0005046594644414D4146414F414046494686
:10070000B046B946C0BC80197941C0BC72417B413A
:1007100080BC0FC7BA46404046464F46444145411B
:100720004641474107BC9446F1B4FFC9001BA941AB
:10073000B241BB416440A4416040614062406340BB
:10074000001BA141A241A3416646A44655460FC5E0
:10075000AB4680468946FFCE241A8D4196419F4183
:10076000404080414440454046404740241A85412E
:1007700086418741614648405946F0C101B442462E
:100780004B462E4611462D1B804145402D1AC91A55
:10079000BF417940C91B47408946A846A2FB0401D6
:1007A000A3FB0623764052187341494645468046CE
:1007B000A1FB05107940784064407F1051414241CF
:1007C0006741404609185A417B4103B4514692465D
:1007D00033C922462F46121A8F41B64172407740E4
:1007E000921BB74184B45A469B460FCA801A99415E
:1007F000BF4178407940C01BB9417740BC4603B443
:100800002E4611462D1B804145402D1AC91ABF4165
:100810007940C91B47408946A846A2FB0401A3FBB7
:100820000623764052187341494645468046A1FB4F
:1008300005107940784064407F1051414241674142
:10084000404609185A417B4154465D46764000199E
:1008500069417241734192469B463CBC03B42E46AB
:1008600011462D1B804145402D1AC91ABF417940C0
:10087000C91B47408946A846A2FB0401A3FB0623E7
:10088000764052187341494645468046A1FB051003
:100890007940784064407F10514142416741404671
:1008A00009185A417B4130BC66466746704071402A
:1008B0007240734076106041694154415D4152403D
:1008C000564157410CBC9046994612184B41504630
:1008D000594644414D4146414F4103BC8446424044
:1008E00043404440454046404740F0B4F0C98B4641
:1008F00049464140A246444640106040544660414B
:10090000694172417B4164406441A2465C46F0CC3F
:100910000019694172417B41A1465C460FC4A34660
:100920000FBC4C4644414D4156415F410021494175
:1009300050468A4640100FBC44414D4156415F41EC
:1009400080465846F0C08346404666465546644059
:100950007541664140197141724173415F460FC74D
:1009600078BC9846A146AA46B346F0BD7047000041
:10097000F0B5A1B004460D4616461F462A4621464C
:1009800011A8FFF749FD2A4604F1200101A8FFF74D
:1009900043FD324601A911A8FFF79DFC224605F14F
:1009A000200101A8FFF738FD314601A8FFF7CBFC75
:1009B00004F1200205F1200101A8FFF72DFD3146C9
:1009C00001A8FFF7F4FC21B0F0BDADF5876D202242
:1009D0000FA10DF5836005F0FFFA202214A19FA856
:1009E00005F0FAFAA7A90DF5836004F072FE40A99C
:1009F0009FA804F083FF20AA40A90DF5836005F0AD
:100A0000A4F86A46A7A99FA805F068F900BFFEE709
:100A100054555555555556781234567812345678E3
:100A20001234567812345678123456781234567876
:100A30009876543298765432987654329876543266
:100A40009876543298765432987654329876543256
:100A500007B586B000200590049003900798029097
:100A60000698019008980090019801680298006823
:100A7000091800980160079800F104000290069898
:100A800000F104000190089800F104000090019822
:100A9000016802980068414100980160079800F1E0
:100AA00008000290069800F108000190089800F1F3
:100AB0000800009001980168029800684141009880
:100AC0000160079800F10C000290069800F10C00FC
:100AD0000190089800F10C000090019801680298BC
:100AE0000068414100980160079800F110000290F1
:100AF000069800F110000190089800F11000009095
:100B000001980168029800684141009801600798C7
:100B100000F114000290069800F11400019008986A
:100B200000F11400009001980168029800684141AA
:100B300000980160079800F118000290069800F1F3
:100B400018000190089800F11800009001980168C1
:100B500002980068414100980160079800F11C006C
:100B60000290069800F11C000190089800F11C000A
:100B70000090019801680298006841410098016066
:100B8000079800F120000290069800F120000190E3
:100B9000089800F120000090019801680298006810
:100BA000414100980160079800F1240002900698E6
:100BB00000F124000190089800F1240000900198B1
:100BC000016802980068414100980160079800F1AF
:100BD00028000290069800F128000190089800F182
:100BE000280000900198016802980068414100982F
:100BF0000160079800F12C000290069800F12C008B
:100C00000190089800F12C0000900198016802986A
:100C10000068414100980160079800F1300002909F
:100C2000069800F130000190089800F13000009023
:100C30000198016802980068414100980160079896
:100C400000F134000290069800F1340001900898F9
:100C500000F1340000900198016802980068414159
:100C600000980160079800F138000290069800F1A2
:100C700038000190089800F1380000900198016850
:100C800002980068414100980160079800F13C001B
:100C90000290069800F13C000190089800F13C0099
:100CA0000090019801680298006841410098016035
:100CB000FE4800680390089802900190029801682D
:100CC0000398091A01980160F84840680390089851
:100CD00000F104000290089800F1040001900298CD
:100CE00001680398814101980160F0488068039091
:100CF000089800F108000290089800F1080001909F
:100D0000029801680398814101980160E748C06832
:100D10000390089800F10C000290089800F10C0074
:100D20000190029801680398814101980160DF48B1
:100D300000690390089800F110000290089800F1F3
:100D400010000190029801680398814101980160A8
:100D5000D64840690390089800F114000290089862
:100D600000F11400019002980168039881410198F4
:100D70000160CE4880690390089800F11800029045
:100D8000089800F1180001900298016803988141C9
:100D900001980160C548C0690390089800F11C00E3
:100DA0000290089800F11C000190029801680398D5
:100DB000814101980160BD48006A0390089800F1E4
:100DC00020000290089800F120000190029801682C
:100DD0000398814101980160B448406A03900898E3
:100DE00000F124000290089800F12400019002987C
:100DF00001680398814101980160AC48806A0390C2
:100E0000089800F128000290089800F1280001904D
:100E1000029801680398814101980160A348C06A63
:100E20000390089800F12C000290089800F12C0023
:100E300001900298016803988141019801609B48E4
:100E4000006B0390089800F130000290089800F1C0
:100E50003000019002980168039881410198016077
:100E60009248406B0390089800F134000290089873
:100E700000F13400019002980168039881410198C3
:100E800001608A48806B0390089800F13800029056
:100E9000089800F138000190029801680398814198
:100EA000019801608148C06B0390089800F13C00F4
:100EB0000290089800F13C000190029801680398A4
:100EC0008141019801604FF0000060F10000049042
:100ED00076480068049900EA01000390089802909F
:100EE00001900298016803980918019801606F4801
:100EF0004068049900EA01000390089800F104009A
:100F00000290089800F1040001900298016803988B
:100F100041410198016065488068049900EA010038
:100F20000390089800F108000290089800F108006A
:100F300001900298016803984141019801605B4863
:100F4000C068049900EA01000390089800F10C00C1
:100F50000290089800F10C00019002980168039833
:100F600041410198016051480069049900EA01007B
:100F70000390089800F110000290089800F110000A
:100F80000190029801680398414101980160474827
:100F90004069049900EA01000390089800F11400E8
:100FA0000290089800F114000190029801680398DB
:100FB0004141019801603D488069049900EA0100BF
:100FC0000390089800F118000290089800F11800AA
:100FD00001900298016803984141019801603348EB
:100FE000C069049900EA01000390089800F11C0010
:100FF0000290089800F11C00019002980168039883
:101000004141019801602948006A049900EA010001
:101010000390089800F120000290089800F1200049
:1010200001900298016803984141019801601F48AE
:10103000406A049900EA01000390089800F1240036
:101040000290089800F1240001900298016803982A
:101050004141019801601548806A049900EA010045
:101060000390089800F128000290089800F12800E9
:1010700001900298016803984141019801600B4872
:10108000C06A049900EA01000390089800F12C005E
:101090000290089800F12C000190029801680398D2
:1010A0004141019801600148006B01E0B861000016
:1010B000049900EA01000390089800F130000290C2
:1010C000089800F1300001900298016803984141AE
:1010D00001980160FE48406B049900EA010003900A
:1010E000089800F134000290089800F13400019053
:1010F000029801680398414101980160F448806BAF
:10110000049900EA01000390089800F13800029069
:10111000089800F138000190029801680398414155
:1011200001980160EA48C06B049900EA010003904D
:10113000089800F13C000290089800F13C000190F2
:1011400002980168039841410198016009B000BD0F
:101150002DE9F041002300240D4684469046DCF83A
:1011600000602F68F61B01F10405C8F8006000F16B
:10117000040602F10407D6F800C0D5F800807CEB25
:10118000080C01F1080500F10806C7F800C002F1DB
:101190000807D6F800C0D5F800807CEB080C01F1F8
:1011A0000C0500F10C06C7F800C002F10C07D6F8D8
:1011B00000C0D5F800807CEB080C01F1100500F1AF
:1011C0001006C7F800C002F11007D6F800C0D5F825
:1011D00000807CEB080C01F1140500F11406C7F83F
:1011E00000C002F11407D6F800C0D5F800807CEBEF
:1011F000080C01F1180500F11806C7F800C002F14B
:101200001807D6F800C0D5F800807CEB080C01F177
:101210001C0500F11C06C7F800C002F11C07D6F837
:1012200000C0D5F800807CEB080C01F1200500F12E
:101230002006C7F800C002F12007D6F800C0D5F894
:1012400000807CEB080C01F1240500F12406C7F8AE
:1012500000C002F12407D6F800C0D5F800807CEB6E
:10126000080C01F1280500F12806C7F800C002F1BA
:101270002807D6F800C0D5F800807CEB080C01F1F7
:101280002C0500F12C06C7F800C002F12C07D6F897
:1012900000C0D5F800807CEB080C01F1300500F1AE
:1012A0003006C7F800C002F13007D6F800C0D5F804
:1012B00000807CEB080C01F1340500F13406C7F81E
:1012C00000C002F13407D6F800C0D5F800807CEBEE
:1012D000080C01F1380500F13806C7F800C002F12A
:1012E0003807D6F800C0D5F800807CEB080C01F177
:1012F0003C0500F13C06C7F800C002F13C07D6F8F7
:1013000000C0D5F800807CEB080CC7F800C01D4673
:1013100065F100036E4D2D6805EA03041546164677
:101320002F683F1937606A4D6D6805EA030402F1C2
:1013300004052E462F6867413760654DAD6805EAA4
:10134000030402F108052E462F6867413760604D9F
:10135000ED6805EA030402F10C052E462F6867418B
:1013600037605B4D2D6905EA030402F110052E4636
:101370002F686741376000BF554D6D6905EA03046A
:1013800002F114052E462F6867413760504DAD6954
:1013900005EA030402F118052E462F6867413760FD
:1013A0004B4DED6905EA030402F11C052E462F683A
:1013B00067413760464D2D6A05EA030402F12005B6
:1013C0002E462F6867413760414D6D6A05EA030478
:1013D00002F124052E462F68674137603C4DAD6A07
:1013E00005EA030402F128052E462F68674137609D
:1013F000374DED6A05EA030402F12C052E462F68ED
:1014000067413760324D2D6B05EA030402F1300568
:101410002E462F68674137602D4D6D6B05EA03043A
:1014200002F134052E462F6867413760284DAD6BB9
:1014300005EA030402F138052E462F68674137603C
:10144000234DED6B05EA030402F13C052E462F689F
:1014500067413760BDE8F0812DE9F84F07468846BF
:101460001546002600241AE057F8240058F82410E6
:10147000A0EB010958F8241057F8240002F069FF86
:101480008346484602F05DFF30404BEA000BCDF842
:1014900000B0A9EB060045F82400009E641C102C47
:1014A000E2D3C6F1000A002600241BE055F8240010
:1014B00000EB0609064850F8240000EA0A004844F8
:1014C00045F824003146484602F043FF834601E0D8
:1014D000B861000055F82400494602F03AFF4BEA93
:1014E0000006641C102CE1D3BDE8F88F2DE9F0470D
:1014F00005460026002418E0FE4850F8240055F860
:101500002410471A55F82410FA4A52F8240002F021
:1015100020FF8146384602F014FF304049EA0008B7
:10152000B81B45F824004646641C102CE4D3BDE8E3
:10153000F0872DE9F04706460D464FF00008307859
:1015400000F00100C0F10009002418E056F8240062
:1015500000EB0807E84850F8240000EA0900384486
:1015600045F824004146384602F0F3FE824655F81D
:101570002400394602F0EDFE4AEA0008641C102CF3
:10158000E4D31021284603F09FFBBDE8F0872DE946
:10159000F04705460026002418E055F82400D649F7
:1015A00051F82410471AD44A52F8241055F8240050
:1015B00002F0CFFE8246384602F0C3FE30404AEACF
:1015C0000009B81B45F824004E46641C102CE4D3D7
:1015D000C6F100080026002417E055F824008719FA
:1015E000C54850F8240000EA0800384445F82400B3
:1015F0003146384602F0ADFE814655F824003946A2
:1016000002F0A7FE49EA0006641C102CE5D3BDE8F1
:10161000F0872DE9FF4F85B092461E4600200490CA
:10162000804600278146002438E000252CE0631B1B
:10163000069A52F82310059A52F8250002AAFEF7DE
:1016400045FE02980190019807440021019802F09C
:1016500080FE83463846019902F07BFE4BEA000982
:10166000039848440190019880444946019802F04B
:1016700070FE83464046019902F06BFE4BEA00097A
:101680000498484404906D1CA542D0D94AF82470AF
:101690004746DDF8108000200490641CB442C4D397
:1016A000344639E0A01B451C2CE0631B069A52F817
:1016B0002310059A52F8250002AAFEF707FE0298A9
:1016C0000190019807440021019802F042FE8346F0
:1016D0003846019902F03DFE4BEA00090398484460
:1016E0000190019880444946019802F032FE8346F9
:1016F0004046019902F02DFE4BEA00090498484447
:1017000004906D1CB542D0D34AF824704746DDF8EA
:10171000108000200490641C7000401EA042C1D8BC
:101720007000401E4AF8207009B0BDE8F08F2DE926
:10173000FC4F06460B464FF0070800240025002208
:10174000002036E0002121E0871F8F421CD9471A74
:10175000DFF8A89159F827C003EB81070DF10409C0
:10176000EA46D7F800B0ABFB0CBECAF800B0C9F827
:1017700000E0E946D9F80070D21901AFD7F800901F
:1017800055EB090554F1000401F101018142DBD35D
:1017900006EB8009D9F80070D21955F1000554F113
:1017A000000443F820202A4625464FF0000400F1AB
:1017B00001001028C6D310203FE0B8F1000F01D07F
:1017C000A8F10108A0F10F0122E0C8F110078F4233
:1017D0001CD9471ADFF8249159F827C003EB810779
:1017E0000DF10409EA46D7F800B0ABFB0CBECAF80D
:1017F00000B0C9F800E0E946D9F80070D21901AF8D
:10180000D7F8009055EB090554F1000401F10101EE
:101810001029DAD306EB8009D9F80070D21955F1F6
:10182000000554F10004A0F1100743F827202A46D0
:1018300025464FF0000400F101001F28BDD306F13A
:101840007C09D9F80070D219DA63BDE8FC8F03B5C2
:1018500089B000200690002105910491099802901A
:101860000A98019002980268019802600998001D88
:1018700002900A98001D0190029800680199086082
:101880000998083002900A98083001900298006880
:101890000199086009980C3002900A980C30019068
:1018A00002980068019908600998103002900A981F
:1018B000103001900298006801990860099814306E
:1018C00002900A981430019002980068019908600B
:1018D0000998183002900A98183001900298006810
:1018E0000199086009981C3002900A981C300190F8
:1018F000029805E0B86100003861000078610000DE
:101900000068019908600998203002900A982030F8
:1019100001900298006801990860FE48406A0390AF
:101920000A98029008A8019007A80090DDE9020239
:101930000068A2FB003200980360019802600998D9
:101940002430029007A801900A9824300090019852
:1019500002680298006812180098026008A80290B5
:101960000298006850F1000004904FF0000050F120
:1019700000000590E748806A03900A98029008A842
:10198000019007A80090DDE902020068A2FB003286
:10199000009803600198026007A8029002990498D9
:1019A00009684018049008A80290029905980968EF
:1019B000484105904FF0000050F100000690D548D6
:1019C000406A03900A9800F10400029008A8019070
:1019D00007A80090DDE902100968A0FB0132009819
:1019E00003600198026007A80290029904980968B0
:1019F0004018049008A80290029905980968484187
:101A00000590069850F100000690099800F1280012
:101A100002900A9800F12800019002990498096840
:101A2000421801980260059850F100000490069851
:101A300050F1000005904FF000000690B548C06AD4
:101A400003900A98029008A8019007A80090DDE989
:101A500002020068A2FB0032009803600198026055
:101A600007A802900299049809684018049008A8F1
:101A7000029002990598096848410590069850F12E
:101A800000000690A348806A03900A9800F10400C1
:101A9000029008A8019007A80090DDE902100968EB
:101AA000A0FB0132009803600198026007A8029031
:101AB0000299049809684018049008A802900299B5
:101AC0000598096848410590069850F10000069075
:101AD0009048406A03900A9800F10800029008A814
:101AE000019007A80090DDE902100968A0FB01320F
:101AF000009803600198026007A802900499029878
:101B00000068091808A804910290029905980968CC
:101B100048410590069850F100000690099800F1A0
:101B20002C0002900A9800F12C0001900299049870
:101B30000968421801980260059850F1000004906D
:101B4000069850F1000105914FF00001069171488F
:101B5000016B03910A98029008A8019007A80090D1
:101B6000DDE902020068A2FB0032009803600198E0
:101B7000026007A80290029904980968401804902E
:101B800008A80290029905980968484105900698AE
:101B900050F1000006905F48C06A03900A9800F177
:101BA0000400029008A8019007A80090DDE9021047
:101BB0000968A0FB0132009803600198026007A841
:101BC00002900299049809684018049008A80290AD
:101BD00002990598096848410590069850F100005F
:101BE00006904C48806A03900A9800F10800029021
:101BF00008A8019007A80090DDE902100968A0FB81
:101C00000132009803600198026007A802900299CF
:101C1000049809684018049008A802900299059851
:101C2000096848410590069850F10000069039482F
:101C3000406A03900A9800F10C00029008A80190F5
:101C400007A80090DDE902100968A0FB01320098A6
:101C500003600198026007A802900299049809683D
:101C60004018049008A80290059902980068414124
:101C70000591069850F100010691099800F1300095
:101C800002900A9800F130000190029904980968C6
:101C9000421801980260059850F1000004900698DF
:101CA00050F1000005904FF0000006901948406B7D
:101CB00003900A98029008A8019007A80090DDE917
:101CC00002020068A2FB00320098036001980260E3
:101CD00007A802900299049809684018049008A87F
:101CE000029002990598096848410590069850F1BC
:101CF000000006900748006B03900A9800F104006A
:101D0000029008A8019007A80090DDE90210096878
:101D100002E0000078610000A0FB0132009803603F
:101D20000198026007A80290029904980968401877
:101D3000049008A802900299059809684841059006
:101D4000069850F100000690FE48C06A03900A9879
:101D500000F10800029008A8019007A80090DDE9B2
:101D600002100968A0FB013200980360019802602C
:101D700007A802900299049809684018049008A8DE
:101D8000029002990598096848410590069850F11B
:101D900000000690EB48806A03900A9800F10C005E
:101DA000029008A8019007A80090DDE902100968D8
:101DB000A0FB0132009803600198026007A802901E
:101DC0000299049809684018049008A8029005999F
:101DD000029800684141059100BF069850F100014A
:101DE0000691D848416A03910A9800F110000290C8
:101DF00008A8019007A80090DDE902100968A0FB7F
:101E00000132009803600198026007A802900499CB
:101E100002980068091808A8049102900299059890
:101E2000096848410590069850F10000069009980D
:101E300000F1340002900A9800F1340001900299F8
:101E400004980968421801980260059850F1000052
:101E50000490069850F1000005904FF000000690A5
:101E6000B848806B03900A98029008A8019007A8D0
:101E70000090DDE902020068A2FB003200980360D6
:101E80000198026007A80290029904980968401816
:101E9000049008A8029002990598096848410590A5
:101EA000069850F100000690A648406B03900A98EF
:101EB00000F10400029008A8019007A80090DDE955
:101EC00002100968A0FB013200980360019807A97D
:101ED00002600291049902980068091808A8049108
:101EE000029002990598096848410590069850F1BA
:101EF000000006909348006B03900A9800F10800D8
:101F0000029008A8019007A80090DDE9020100688E
:101F1000A1FB0021009802600198016007A90291CD
:101F2000049902980068091808A80491029005997C
:101F30000298006841410591069850F10001069110
:101F40008048C16A03910A9800F10C00029008A829
:101F5000019007A80090DDE902100968A0FB01329A
:101F6000009803600198026007A802900299049803
:101F700009684018049008A8029002990598096819
:101F800048410590069850F1000006906D48806A1F
:101F900003900A9800F11000029008A8019007A889
:101FA0000090DDE902100968A0FB0132009803608F
:101FB0000198026007A802900299049809684018E5
:101FC000049008A802900299059809684841059074
:101FD000069850F1000006905A48406A03900A980B
:101FE00000F11400029008A8019007A80090DDE914
:101FF00002100968A0FB013200980360019802609A
:1020000007A802900299049809684018049008A84B
:10201000029002990598096848410590069850F188
:1020200000000690099800F1380002900A9800F12B
:10203000380001900499029800680918019801601D
:10204000059850F100010491069850F100010591A6
:102050004FF0000106913B48C16B03910A98029032
:1020600008A8019007A80090DDE902020068A2FB21
:102070000032009803600198026007A8029002995C
:10208000049809684018049008A8029002990598DD
:10209000096848410590069850F1000006902948CB
:1020A000806B03900A9800F10400029008A8019048
:1020B00007A80090DDE902100968A0FB0132009832
:1020C00003600198026007A80290029904980968C9
:1020D0004018049008A802900299059809684841A0
:1020E0000590069850F1000006901648406B03904A
:1020F0000A9800F10800029008A8019007A8009033
:10210000DDE902100968A0FB013200980360019824
:10211000026007A802900299049809684018049088
:1021200008A8029002990598096848410590069808
:1021300050F1000006900348006B03900A9800F1EC
:102140000C0001E078610000029008A8019007A847
:102150000090DDE902100968A0FB013200980360DD
:102160000198026007A80290029904980968401833
:10217000049008A8029002990598096848410590C2
:10218000069850F100000690FE48C06A03900A9835
:1021900000F11000029008A8019007A80090DDE966
:1021A00002100968A0FB01320098036001980260E8
:1021B00007A802900299049809684018049008A89A
:1021C000029002990598096848410590069850F1D7
:1021D00000000690EB48806A03900A9800F1140012
:1021E000029008A8019007A80090DDE90210096894
:1021F000A0FB0132009803600198026007A80290DA
:102200000299049809684018049008A8029002995D
:102210000598096848410590069850F1000006901D
:10222000D848406A03900A9800F11800029008A864
:10223000019007A80090DDE902100968A0FB0132B7
:10224000009803600198026007A802900299049820
:1022500009684018049008A8029002990598096836
:1022600048410590069850F100000690099800F149
:102270003C0002900A9800F13C00019002990498F9
:102280000968421801980260059850F10000049016
:10229000069850F1000005904FF000000690B948F4
:1022A000C06B03900A9800F10400029008A8019006
:1022B00007A80090DDE902100968A0FB0132009830
:1022C00003600198026007A80290029904980968C7
:1022D0004018049008A8029002990598096848419E
:1022E0000590069850F100000690A648806B039078
:1022F0000A9800F10800029008A8019007A8009031
:10230000DDE902100968A0FB013200980360019822
:10231000026007A802900299049809684018049086
:1023200008A8029002990598096848410590069806
:1023300050F1000006909348406B03900A9800F11A
:102340000C00029008A8019007A80090DDE90201A6
:102350000068A1FB0021009802600198016007A9B4
:102360000291049902980068091808A80491029043
:1023700002990598096848410590069850F10000B7
:1023800006908048006B03900A9800F110000290BC
:1023900008A8019007A80090DDE902020068A2FBEE
:1023A0000032009803600198026007A80290029929
:1023B000049809684018049008A8029005990298AA
:1023C000006841410591069850F1000106916D4861
:1023D000C16A03910A9800F11400029008A80190C4
:1023E00007A80090DDE902010068A1FB0021009828
:1023F00002600198016007A902910499029800689F
:10240000091808A8049102900299059809684841A2
:102410000590069850F1000006905A48806A039093
:102420000A9800F11800029008A8019007A80090EF
:10243000DDE902100968A0FB0132009803600198F1
:10244000026007A802900299049809684018049055
:1024500008A80290029905980968484105900698D5
:1024600050F1000006904748406A03900A9800F136
:102470001C00029008A8019007A80090DDE9020165
:102480000068A1FB0021009802600198016007A983
:102490000291049902980068091808A80491029012
:1024A00002990598096848410590069850F1000086
:1024B00006903448006A03900A9800F120000290C8
:1024C00008A8019007A80090DDE902100968A0FBA8
:1024D0000132009803600198026007A802900299F7
:1024E000049809684018049008A802900299059879
:1024F000096848410590069850F10000069021486F
:10250000C06903900A9800F12400029008A8019085
:1025100007A80090DDE902100968A0FB01320098CD
:1025200003600198026007A8029002990498096864
:102530004018049008A8029002990598096848413B
:102540000590069850F100000690099800F14000AF
:1025500002900A980190029904980968421801981B
:102560000260059850F100000490069850F10000B8
:1025700005904FF0000006900248C06B03900A9847
:1025800002E000007861000000F10800029008A855
:10259000019007A80090DDE902100968A0FB013254
:1025A000009803600198026007A8029002990498BD
:1025B00009684018049008A80290029905980968D3
:1025C00048410590069850F100000690FE48806B47
:1025D00003900A9800F10C00029008A8019007A847
:1025E0000090DDE902010068A1FB00210098026073
:1025F0000198016007A902910499029800680918DE
:1026000008A804910290029905980968484105902C
:10261000069850F100000690EB48406B03900A9832
:1026200000F11000029008A8019007A80090DDE9D1
:1026300002100968A0FB0132009803600198026053
:1026400007A802900299049809684018049008A805
:10265000029002990598096848410590069850F142
:1026600000000690D848006B03900A9800F114000F
:10267000029008A8019007A80090DDE90201006817
:10268000A1FB0021009802600198016007A9029156
:10269000049902980068091808A804910290029908
:1026A0000598096848410590069850F10001069187
:1026B000C548C16A03910A9800F11800029008A861
:1026C000019007A80090DDE902010068A1FB00214C
:1026D000009802600198016007A90291049902988C
:1026E0000068091808A804910290029905980968E1
:1026F00048410590069850F100000690B248806A63
:1027000003900A9800F11C00029008A8019007A805
:102710000090DDE902100968A0FB01320098036017
:10272000019807A9026002910499029800680918AB
:1027300008A80491029002990598096848410590FB
:10274000069850F1000006909F48406A03900A984E
:1027500000F12000029008A8019007A80090DDE990
:1027600002100968A0FB0132009803600198026022
:1027700007A802900299049809684018049008A8D4
:10278000029002990598096848410590069850F111
:10279000000006908C48006A03900A9800F124001B
:1027A000029008A8019007A80090DDE902100968CE
:1027B000A0FB0132009803600198026007A8029014
:1027C0000299049809684018049008A80290029998
:1027D0000598096848410590069850F10000069058
:1027E0007948C06903900A9800F12800029008A86F
:1027F000019007A80090DDE902100968A0FB0132F2
:10280000009803600198026007A80290029904985A
:1028100009684018049008A8029002990598096870
:1028200048410590069850F100000690099800F183
:10283000440002900A9800F1040001900299049863
:102840000968421801980260059850F10000049050
:10285000069850F1000005904FF0000006905A488D
:10286000C06B03900A9800F10C00029008A8019038
:1028700007A80090DDE902100968A0FB013200986A
:1028800003600198026007A8029002990498096801
:102890004018049008A802900299059809684841D8
:1028A0000590069850F1000006904748806B039011
:1028B0000A9800F11000029008A8019007A8009063
:1028C000DDE902100968A0FB01320098036001985D
:1028D000026007A8029002990498096840180490C1
:1028E00008A8029002990598096848410590069841
:1028F00050F1000006903448406B03900A9800F1B4
:102900001400029008A8019007A80090DDE90201D8
:102910000068A1FB0021009802600198016007A9EE
:102920000291049902980068091808A8049102907D
:1029300000BF05990298006841410591069850F141
:10294000000106912048016B03910A9800F11800DC
:10295000029008A8019007A80090DDE9021009681C
:10296000A0FB0132009803600198026007A8029062
:10297000049902980068091808A804910290029925
:102980000598096848410590069850F100000690A6
:102990000D48C06A03900A9800F11C00029008A834
:1029A000019007A80090DDE902100968A0FB013240
:1029B00000980360019807A90260029104990298A7
:1029C0000068091808A801E07861000004910290ED
:1029D00002990598096848410590069850F1000051
:1029E0000690FE48806A03900A9800F12000029049
:1029F00008A8019007A80090DDE902100968A0FB73
:102A00000132009803600198026007A802900299C1
:102A1000049809684018049008A802900299059843
:102A2000096848410590069850F100000690EB486F
:102A3000406A03900A9800F12400029008A80190CF
:102A400007A80090DDE902100968A0FB0132009898
:102A500003600198026007A802900299049809682F
:102A60004018049008A80290029905980968484106
:102A70000590069850F100000690D848006A03902F
:102A80000A9800F12800029008A8019007A8009079
:102A9000DDE902100968A0FB01320098036001988B
:102AA00007A902600291049902980068091808A811
:102AB000049102900299059809684841059006988A
:102AC00050F100000690C548C06903900A9800F1D3
:102AD0002C00029008A8019007A80090DDE90210E0
:102AE0000968A0FB0132009803600198026007A802
:102AF00002900299049809684018049008A802906E
:102B000002990598096848410590069850F100001F
:102B10000690099800F1480002900A9800F1080018
:102B2000019002990498096842180198026005987A
:102B300050F100000490069850F1000005904FF00D
:102B400000000690A548C06B03900A9800F11000A1
:102B5000029008A8019007A80090DDE9021009681A
:102B6000A0FB0132009803600198026007A8029060
:102B70000299049809684018049008A802900299E4
:102B80000598096848410590069850F100000690A4
:102B90009248806B03900A9800F11400029008A8F4
:102BA000019007A80090DDE902100968A0FB01323E
:102BB00000980360019807A90260029104990298A5
:102BC0000068091808A804910290029905980968FC
:102BD00048410590069850F1000006907F48406BF0
:102BE00003900A9800F11800029008A8019007A825
:102BF0000090DDE902100968A0FB01320098036033
:102C00000198026007A802900499029800680918C8
:102C1000049108A802900599029800684141059125
:102C2000069850F1000106916C48016B03910A98D7
:102C300000F11C00029008A8019007A80090DDE9AF
:102C400002100968A0FB013200980360019802603D
:102C500007A802900299049809684018049008A8EF
:102C6000029002990598096848410590069850F12C
:102C7000000006905948C06A03900A9800F12000AD
:102C8000029008A8019007A80090DDE902100968E9
:102C9000A0FB0132009803600198026007A802902F
:102CA000049902980068091808A8049102900299F2
:102CB0000598096848410590069850F10000069073
:102CC0004648806A03900A9800F12400029008A800
:102CD000019007A80090DDE902010068A1FB002136
:102CE000009802600198016007A902910499029876
:102CF0000068091808A804910290029905980968CB
:102D000048410590069850F1000006903348406A0B
:102D100003900A9800F12800029008A8019007A8E3
:102D20000090DDE902100968A0FB01320098036001
:102D30000198026007A80290029904980968401857
:102D4000049008A8029002990598096848410590E6
:102D5000069850F1000006902048006A03900A98F7
:102D600000F12C00029008A8019007A80090DDE96E
:102D700002100968A0FB013200980360019802600C
:102D800007A802900299049809684018049008A8BE
:102D9000029002990598096848410590069850F1FB
:102DA000000006900D48C06903900A9800F13000B9
:102DB000029008A8019007A80090DDE902100968B8
:102DC000A0FB013200980360019807A902600291FC
:102DD000049902980068091808A801E078610000C9
:102DE0000491029002990598096848410590069857
:102DF00050F100000690099800F14C0002900A98EA
:102E000000F10C00019004990298006809180198DB
:102E10000160059850F100010491069850F10001FD
:102E200005914FF000010691FE48C16B03910A988D
:102E300000F11400029008A8019007A80090DDE9B5
:102E400002100968A0FB013200980360019807A9ED
:102E500002600291049902980068091808A8049178
:102E6000029002990598096848410590069850F12A
:102E700000000690EB48806B03900A9800F1180060
:102E8000029008A8019007A80090DDE902100968E7
:102E9000A0FB0132009803600198026007A802902D
:102EA0000299049809684018049008A802900299B1
:102EB0000598096848410590069850F10000069071
:102EC000D848406B03900A9800F11C00029008A8B3
:102ED000019007A80090DDE902010068A1FB002134
:102EE000009802600198016007A802900499029876
:102EF0000068091808A804910290059902980068D2
:102F000041410591069850F100010691C548016BB9
:102F100003910A9800F12000029008A8019007A8E8
:102F20000090DDE902010068A1FB00210098026029
:102F30000198016007A90291049902980068091894
:102F400008A80491029002990598096848410590E3
:102F5000069850F100000690B248C06A03900A98A3
:102F600000F12400029008A8019007A80090DDE974
:102F700002010068A1FB0021009802600198016035
:102F800007A90291049902980068091808A80491F9
:102F9000029005990298006841410591069850F108
:102FA000000106919F48816A03910A9800F1280068
:102FB000029008A8019007A80090DDE902100968B6
:102FC000A0FB0132009803600198026007A80290FC
:102FD0000299049809684018049008A80290029980
:102FE0000598096848410590069850F10000069040
:102FF0008C48406A03900A9800F12C00029008A8BF
:10300000019007A80090DDE902010068A1FB002102
:10301000009802600198016007A902910499029842
:103020000068091808A804910290059902980068A0
:1030300041410591069850F1000106917948016AD5
:1030400003910A9800F13000029008A8019007A8A7
:103050000090DDE902010068A1FB002100980260F8
:103060000198016007A90291049902980068091863
:1030700008A80491029002990598096848410590B2
:10308000069850F1000006906648C06903900A98BF
:1030900000F13400029008A8019007A80090DDE933
:1030A00002100968A0FB01320098036001980260D9
:1030B00007A80290049902980068091808A80491CA
:1030C000029002990598096848410590069850F1C8
:1030D00000000690099800F1500002900A9800F153
:1030E0001000019002990498096842180198026042
:1030F000059850F100000490069850F100000590EA
:103100004FF0000006904748C06B03900A9800F10A
:103110001800029008A8019007A80090DDE90201BC
:103120000068A1FB0021009802600198016007A9D6
:103130000291049902980068091808A80491029065
:1031400002990598096848410590069850F10000D9
:1031500006903448806B03900A9800F11C0002909E
:1031600008A8019007A80090DDE902010068A1FB12
:103170000021009802600198016007A9029104995A
:1031800002980068091808A804910290029905980D
:10319000096848410590069850F1000006902148C2
:1031A000406B03900A9800F12000029008A801905B
:1031B00007A80090DDE902010068A1FB002100984A
:1031C00002600198016007A90291049902980068C1
:1031D000091808A8049102900299059809684841C5
:1031E0000590069850F1000006900E48006B039081
:1031F0000A9800F12400029008A8019007A8009006
:10320000DDE902100968A0FB013200980360019813
:10321000026007A80290049902980068091808A89B
:10322000049101E078610000029002990598096814
:1032300048410590069850F100000690FE48C06A8B
:1032400003900A9800F12800029008A8019007A8AE
:103250000090DDE902010068A1FB002100980260F6
:103260000198016007A90291049902980068091861
:1032700008A80491029005990298006841410591BF
:10328000069850F100010691EB48816A03910A9873
:1032900000F12C00029008A8019007A80090DDE939
:1032A00002100968A0FB013200980360019807A989
:1032B00002600291049902980068091808A8049114
:1032C000029002990598096848410590069850F1C6
:1032D00000000690D848406A03900A9800F1300038
:1032E000029008A8019007A80090DDE9020100689B
:1032F000A1FB0021009802600198016007A90291DA
:10330000049902980068091808A80491029002998B
:103310000598096848410590069850F1000006900C
:10332000C548006A03900A9800F13400029008A88A
:10333000019007A80090DDE902100968A0FB0132A6
:10334000009803600198026007A80290049902980F
:103350000068091808A8049102900599029800686D
:1033600041410591069850F100010691B248C169AA
:1033700003910A9800F13800029008A8019007A86C
:103380000090DDE902100968A0FB0132009803609B
:10339000019807A90260029104990298006809182F
:1033A00008A804910290029905980968484105907F
:1033B000069850F100000690099800F15400029020
:1033C0000A9800F114000190049902980068091805
:1033D00001980160059850F100010491069850F1A0
:1033E000000105914FF0000106919348C16B0391D4
:1033F0000A9800F11C00029008A8019007A800900C
:10340000DDE902100968A0FB013200980360019811
:10341000026007A802900299049809684018049075
:1034200008A80290029905980968484105900698F5
:1034300050F1000006908048806B03900A9800F1DC
:103440002000029008A8019007A80090DDE9021072
:103450000968A0FB013200980360019807A9026087
:103460000291049902980068091808A80491029032
:1034700005990298006841410591069850F10001B4
:1034800006916D48416B03910A9800F12400029067
:1034900008A8019007A80090DDE902020068A2FBDD
:1034A0000032009803600198026007A80290029918
:1034B000049809684018049008A802900299059899
:1034C000096848410590069850F1000106915A4854
:1034D000016B03910A9800F12800029008A801905E
:1034E00007A80090DDE902100968A0FB01320098EE
:1034F0000360019807A9026002910499029800688C
:10350000091808A804910290029905980968484191
:103510000590069850F1000006904748C06A039055
:103520000A9800F12C00029008A8019007A80090CA
:10353000DDE902100968A0FB0132009803600198E0
:10354000026007A802900299049809684018049044
:1035500008A80290059902980068414105910698D3
:1035600050F1000106913448816A03910A9800F1F4
:103570003000029008A8019007A80090DDE9020140
:103580000068A1FB0021009802600198016007A972
:103590000291049902980068091808A80491029001
:1035A00002990598096848410590069850F1000075
:1035B00006902148406A03900A9800F13400029076
:1035C00008A8019007A80090DDE902100968A0FB97
:1035D0000132009803600198026007A802900299E6
:1035E000049809684018049008A802900299059868
:1035F000096848410590069850F1000006900E4871
:10360000006A03900A9800F13800029008A801901F
:1036100007A80090DDE902100968A0FB01320098BC
:1036200003600198026007A8029002990498096853
:103630004018049008A801E0786100000290029907
:103640000598096848410590069850F100000690D9
:10365000FE48C06903900A9800F13C00029008A857
:10366000019007A80090DDE902010068A1FB00219C
:10367000009802600198016007A9029104990298DC
:103680000068091808A80491029002990598096831
:1036900048410590069850F100000690099800F105
:1036A000580002900A9800F11800019002990498BD
:1036B0000968421801980260059850F100000490D2
:1036C000069850F1000005904FF000000690DF488A
:1036D000C06B03900A9800F12000029008A80190A6
:1036E00007A80090DDE902100968A0FB01320098EC
:1036F00003600198026007A802900499029800688C
:10370000091808A80491029002990598096848418F
:103710000590069850F100000690CC48806B03900D
:103720000A9800F12400029008A8019007A80090D0
:10373000DDE902100968A0FB0132009803600198DE
:10374000026007A80290049902980068091808A866
:1037500004910290029905980968484105900698DD
:1037600050F100000690B948406B03900A9800F1B0
:103770002800029008A8019007A80090DDE9021037
:103780000968A0FB0132009803600198026007A855
:103790000290049902980068091808A80491029000
:1037A00002990598096848410590069850F1000073
:1037B0000690A648006B03900A9800F12C00029036
:1037C00008A8019007A80090DDE902010068A1FBAC
:1037D0000021009802600198016007A902910499F4
:1037E00002980068091808A80491029002990598A7
:1037F000096848410590069850F1000006909348EA
:10380000C06A03900A9800F13000029008A8019065
:1038100007A80090DDE902100968A0FB01320098BA
:103820000360019807A90260029104990298006858
:103830000818049008A80290029905980968484160
:103840000590069850F1000006908048806A039029
:103850000A9800F13400029008A8019007A800908F
:10386000DDE902100968A0FB0132009803600198AD
:10387000026007A802900299049809684018049011
:1038800008A80290059902980068414105910698A0
:1038900050F1000106916D48416A03910A9800F1C8
:1038A0003800029008A8019007A80090DDE9020105
:1038B0000068A1FB0021009802600198016007A93F
:1038C0000291049902980068091808A804910290CE
:1038D00002990598096848410590069850F1000042
:1038E00006905A48006A03900A9800F13C00029042
:1038F00008A8019007A80090DDE902010068A1FB7B
:103900000021009802600198016007A902910499C2
:10391000029800680818049008A802900299059877
:10392000096848410590069850F1000006900998F2
:1039300000F15C0002900A9800F11C0001900499CB
:1039400002980068091801980160059850F100017B
:103950000491069850F1000105914FF00001069185
:103960003A48C16B03910A9800F12400029008A81C
:10397000019007A80090DDE902010068A1FB002189
:10398000009802600198016007A9029104990298C9
:103990000068091808A80491029005990298006827
:1039A00041410591069850F1000106912748816B2D
:1039B00003910A9800F12800029008A8019007A836
:1039C0000090DDE902100968A0FB01320098036055
:1039D0000198026007A802900499029800680918EB
:1039E00008A8049102900299059809684841059039
:1039F000069850F1000006901448406B03900A9816
:103A000000F12C00029008A8019007A80090DDE9C1
:103A100002100968A0FB013200980360019802605F
:103A200007A80290049902980068091808A8049150
:103A3000029000BF059902980068414105910698DF
:103A400050F1000106910148016B01E0786100002E
:103A500003910A9800F13000029008A8019007A88D
:103A60000090DDE902010068A1FB002100980260DE
:103A70000198016007A90291049902980068091849
:103A800008A80491029005990298006841410591A7
:103A9000069850F100010691FE48C16A03910A9808
:103AA00000F13400029008A8019007A80090DDE919
:103AB00002010068A1FB00210098026001980160EA
:103AC00007A90291049902980068091808A80491AE
:103AD000029005990298006841410591069850F1BD
:103AE00000010691EB48816A03910A9800F13800C1
:103AF000029008A8019007A80090DDE90201006883
:103B0000A1FB0021009802600198016007A90291C1
:103B1000049902980068091808A804910290059970
:103B20000298006841410591069850F10001069104
:103B3000D848416A03910A9800F13C00029008A815
:103B4000019007A80090DDE902010068A1FB0021B7
:103B5000009802600198016007A9029104990298F7
:103B60000068091808A80491029005990298006855
:103B700041410591069850F100010691099800F124
:103B8000600002900A9800F12000019002990498C8
:103B90000968421801980260059850F100000490ED
:103BA000069850F1000005904FF000000690B948CB
:103BB000C06B03900A9800F12800029008A80190B9
:103BC00007A80090DDE902010068A1FB0021009830
:103BD00002600198016007A90291049902980068A7
:103BE000091808A8049102900299059809684841AB
:103BF0000590069850F100000690A648806B03904F
:103C00000A9800F12C00029008A8019007A80090E3
:103C1000DDE902010068A1FB002100980260019823
:103C2000016007A90291049902980068091808A880
:103C30000491029005990298006841410591069807
:103C400050F1000106919348416B03910A9800F1ED
:103C50003000029008A8019007A80090DDE9020159
:103C60000068A1FB0021009802600198016007A98B
:103C70000291049902980068091808A8049102901A
:103C800005990298006841410591069850F100019C
:103C900006918048016B03910A9800F1340002906C
:103CA00008A8019007A80090DDE902010068A1FBC7
:103CB0000021009802600198016007A9029104990F
:103CC00002980068091808A80491029002990598C2
:103CD000096848410590069850F1000006906D482B
:103CE000C06A03900A9800F13800029008A8019079
:103CF00007A80090DDE902100968A0FB01210098E7
:103D000002600198016007A9029104990298006875
:103D10000918049108A80290059902980068414189
:103D20000591069850F1000106915A48816A039165
:103D30000A9800F13C00029008A807A9CDE90010FC
:103D4000DDE902010068A1FB0021009802600198F2
:103D5000016007A90291049902980068091808A84F
:103D600004910290059902980068414105910698D6
:103D700050F100010691099800F1640002900A9840
:103D800000F1240001900499029800680918019834
:103D90000160059850F100010491069850F100016E
:103DA00005914FF0000106913A48C16B03910A98C2
:103DB00000F12C00029008A8019007A80090DDE90E
:103DC00002010068A1FB00210098026001980160D7
:103DD00007A90291049902980068091808A804919B
:103DE000029005990298006841410591069850F1AA
:103DF000000106912748816B03910A9800F1300079
:103E0000029008A8019007A80090DDE9020100686F
:103E1000A1FB0021009802600198016007A90291AE
:103E2000049902980068091808A80491029005995D
:103E30000298006841410591069850F100010691F1
:103E40001448416B03910A9800F13400029008A8CD
:103E5000019007A80090DDE902010068A1FB0021A4
:103E6000009802600198016007A9029102990498E4
:103E700009684018049008A8029005990298006803
:103E800041410591069850F1000106910148016BEE
:103E9000039101E0786100000A9800F13800029077
:103EA00008A8019007A80090DDE902100968A0FBAE
:103EB0000132009803600198026007A802900499FB
:103EC00002980068091808A80491029002990598C0
:103ED000096848410590069850F100000690FE4898
:103EE000C06A03900A9800F13C00029008A8019073
:103EF00007A80090DDE902100968A0FB01320098D4
:103F00000360019807A90260029104990298006871
:103F1000091808A804910290059902980068414187
:103F20000591069850F100010691099800F168008A
:103F300002900A9800F12800019004990298006804
:103F4000091801980160059850F100010491069844
:103F500050F1000105914FF000010691DE48C16B60
:103F600003910A9800F13000029008A8019007A878
:103F70000090DDE902010068A1FB002100980260C9
:103F80000198016007A90291049902980068091834
:103F900008A8049102900599029800684141059192
:103FA000069850F100010691CB48816B03910A9865
:103FB00000F13400029008A8019007A80090DDE904
:103FC00002010068A1FB00210098026001980160D5
:103FD00007A902910299049809684018049008A85A
:103FE000029005990298006841410591069850F1A8
:103FF00000010691B848406B03900A9800F1380020
:10400000029008A8019007A80090DDE9020100686D
:10401000A1FB0021009802600198016007A90291AC
:10402000049902980068091808A80491029005995B
:104030000298006841410591069850F100010691EF
:10404000A548016B03910A9800F13C00029008A872
:10405000019007A80090DDE902010068A1FB0021A2
:10406000009802600198016007A9029104990298E2
:104070000068091808A80491029005990298006840
:1040800041410591069850F100010691099800F10F
:104090006C0002900A9800F12C000190049902989B
:1040A0000068091801980160059850F10001049119
:1040B000069850F1000105914FF0000106918648E5
:1040C000C16B03910A9800F13400029008A8019096
:1040D00007A80090DDE902010068A1FB002100981B
:1040E00002600198016007A9029104990298006892
:1040F000091808A8049102900599029800684141A6
:104100000591069850F1000106917348816B039167
:104110000A9800F13800029008A8019007A80090C2
:10412000DDE902100968A0FB0132009803600198E4
:10413000026007A80290049902980068091808A86C
:1041400004910290029905980968484105900698E3
:1041500050F1000006906048406B03900A9800F10F
:104160003C00029008A8019007A80090DDE9020138
:104170000068A1FB0021009802600198016007A976
:104180000291049902980068091808A80491029005
:1041900005990298006841410591069850F1000187
:1041A0000691099800F1700002900A9800F1300021
:1041B0000190049902980068091801980160059817
:1041C00050F100010491069850F1000105914FF063
:1041D000000106914048C16B03910A9800F1380034
:1041E000029008A8019007A80090DDE9020100688C
:1041F000A1FB0021009802600198016007A90291CB
:10420000049902980068091808A80491029002997C
:104210000598096848410590069850F100000690FD
:104220002D48806B03900A9800F13C00029008A88A
:10423000019007A80090DDE902010068A1FB0021C0
:10424000009802600198016007A902910499029800
:104250000068091808A8049102900599029800685E
:1042600041410591069850F100010691099800F12D
:10427000740002900A9800F13400019004990298A9
:104280000068091801980160059850F10001049137
:10429000069850F1000105914FF0000106910E487B
:1042A000C16B03910A9800F13C00029008A80190AC
:1042B00007A80090DDE902010068A1FB0021009839
:1042C00002600198016007A90291049902980068B0
:1042D0000918049108A801E078610000029005998E
:1042E0000298006841410591069850F1000106913D
:1042F000099800F1780002900A9800F138000190C6
:10430000049902980068091801980160059850F115
:1043100000010491069850F1000105914FF0000151
:104320000691099800F17C0002900A9800F13C0087
:1043300001900499029800680918019801600BB077
:1043400000BD014600BF48420843C00F80F0010095
:104350007047024682EA0100531A4B40184350400E
:10436000C00F704770B5A0B005460E4614468021B8
:10437000684601F063FE10236A4631462846FCF782
:10438000F7FA21466846FDF762FA20B070BD70B5B5
:1043900005460C462246F8492846FFF7E3FF70BD64
:1043A00030B591B005460C46402101A801F046FE0B
:1043B00001200190224601A92846FFF7D3FF20469D
:1043C000FDF7E5F811B030BD10B50346002004E05C
:1043D00053F8204041F82040401C9042F8D310BDD3
:1043E00030B5A1B004460D46802101A801F026FE9B
:1043F000102301AA21462046FCF7BAFA294601A853
:10440000FDF725FA21B030BD70B5ADF5806D0646DB
:1044100069463046FFF7E4FF10AA69463046FFF7C9
:10442000A1FF00240AE010AB611C03EB811210A96C
:1044300001EB84106946FFF795FF641C0D2CF2D93F
:104440006946304601F05DFE002404E06946684696
:10445000FFF7C6FF641C082CF8D36A46694630464D
:10446000FFF780FF002404E069466846FFF7B8FFC5
:10447000641C052CF8D36A46694690A8FFF772FFC2
:10448000002404E069466846FFF7AAFF641C052C77
:10449000F8D36A46694670A8FFF764FF002404E079
:1044A00069466846FFF79CFF641C062CF8D36A46F1
:1044B0006946A0A8FFF756FF002404E06946684655
:1044C000FFF78EFF641C072CF8D36A46694610A8D4
:1044D000FFF748FF002404E069466846FFF780FFC5
:1044E000641C072CF8D36A4669463046FFF73AFF4A
:1044F000002404E069466846FFF772FF641C072C3D
:10450000F8D36A46694670A8FFF72CFF002404E040
:1045100069466846FFF764FF641C072CF8D36A46B7
:10452000694630A8FFF71EFF002404E0694668468C
:10453000FFF756FF641C052CF8D36A46694690A81D
:10454000FFF710FF002404E069466846FFF748FFC4
:10455000641C072CF8D36A4669463046FFF702FF11
:10456000002404E069466846FFF73AFF641C082C03
:10457000F8D36A466946B0A8FFF7F4FE002404E0C9
:1045800069466846FFF72CFF641C052CF8D36A4681
:10459000694610A8FFF7E6FE002404E06946684675
:1045A000FFF71EFF641C062CF8D36A466946B0A8C4
:1045B000FFF7D8FE002404E069466846FFF710FFC5
:1045C000641C052CF8D36A466946B0A8FFF7CAFEFA
:1045D000002404E069466846FFF702FF641C052CCE
:1045E000F8D36A46694660A8FFF7BCFE002404E0E1
:1045F00069466846FFF7F4FE641C052CF8D36A464A
:10460000694630A8FFF7AEFE002404E0694668461C
:10461000FFF7E6FE641C052CF8D36A46694670A8CD
:10462000FFF7A0FE002404E069466846FFF7D8FEC5
:10463000641C052CF8D36A46694640A8FFF792FE31
:10464000002404E069466846FFF7CAFE641C062C95
:10465000F8D36A46694660A8FFF784FE002404E0A8
:1046600069466846FFF7BCFE641C0C2CF8D36A460A
:104670006946D0A8FFF776FE002404E06946684644
:10468000FFF7AEFE641C052CF8D36A46694690A875
:10469000FFF768FE002404E069466846FFF7A0FEC5
:1046A000641C052CF8D36A46694670A8FFF75AFEC9
:1046B000002404E069466846FFF792FE641C052C5E
:1046C000F8D36A466946D0A8FFF74CFE002404E000
:1046D00069466846FFF784FE641C062CF8D36A46D8
:1046E0006946C0A8FFF73EFE002404E0694668461C
:1046F000FFF776FE641C082CF8D36A46694670A85A
:10470000FFF730FE002404E069466846FFF768FEC4
:10471000641C052CF8D36A46694660A8FFF722FEA0
:10472000002404E069466846FFF75AFE641C052C25
:10473000F8D36A466946F0A8FFF714FE002404E0A7
:1047400069466846FFF74CFE641C072CF8D36A469E
:104750006946F0A8FFF706FE002404E069466846B3
:10476000FFF73EFE641C052CF8D36A46694660A834
:10477000FFF7F8FD002406E0B864000069466846CB
:10478000FFF72EFE641C052CF8D36A46694670A814
:10479000FFF7E8FD002404E069466846FFF720FEC5
:1047A000641C082CF8D36A46694690A8FFF7DAFD26
:1047B000002404E069466846FFF712FE641C052CDD
:1047C000F8D36A4669463046FFF7CCFD002404E082
:1047D00069466846FFF704FE641C082CF8D36A4655
:1047E000694650A8FFF7BEFD002404E0694668460C
:1047F000FFF7F6FD641C052CF8D36A46694670A8DD
:10480000FFF7B0FD002404E069466846FFF7E8FDC5
:10481000641C052CF8D36A46694660A8FFF7A2FD20
:10482000002404E069466846FFF7DAFD641C082CA2
:10483000F8D36A46694680A8FFF794FD002404E097
:1048400069466846FFF7CCFD641C052CF8D36A4620
:1048500069463046FFF786FD002404E06946684655
:10486000FFF7BEFD641C052CF8D36A46694610A804
:10487000FFF778FD002404E069466846FFF7B0FDC5
:10488000641C052CF8D36A466946C0A8FFF76AFD88
:10489000002404E069466846FFF7A2FD641C052C6D
:1048A000F8D36A466946E0A8FFF75CFD002404E0FF
:1048B00069466846FFF794FD641C082CF8D36A46E5
:1048C000694620A8FFF74EFD002404E069466846CB
:1048D000FFF786FD641C062CF8D36A466946B0A82B
:1048E000FFF740FD00250EE0002404E0694668461D
:1048F000FFF776FD641C052CF8D36A466946F0A8DC
:10490000FFF730FD6D1C312DEED33146684601F0C6
:10491000F8FB0DF5806D70BD10B590B0044669468A
:10492000204601F0EEFB6846FFF76EFD69466846DB
:10493000FFF756FD69466846FFF752FD2246694675
:104940002046FFF70FFD10B010BD70B505460C46B0
:104950002146284601F0D5FB04F1400105F1400055
:1049600001F0CFFB70BD10B50446204601F0D4FB2A
:1049700004F1400001F0D0FB10BD10B50446204604
:10498000FCF7B4FD04F14000FCF7B0FD10BD70B5BC
:1049900006460C4615462A4621463046FCF758F88E
:1049A00005F1400204F1400106F14000FCF750F827
:1049B00070BD70B506460C4615462A46214630465F
:1049C000FCF7C6FB05F1400204F1400106F140008E
:1049D000FCF7BEFB70BD70B505460C462146284667
:1049E000FCF7A7FD04F1400105F14000FCF7A1FD33
:1049F00070BD10B504462046FCF7C9FD04F1400027
:104A0000FCF7C5FD10BD2DE9F74F82B0074688467B
:104A1000CDE900784FF01009049D4FF0000A002402
:104A200017E0009850F8240000EB0A06019850F8AF
:104A30002400304445F824005146304600F072F915
:104A4000834655F82400314600F06CF94BEA000A21
:104A5000641C4C45E5D300BF05B0BDE8F08F30B510
:104A6000B1B004460D4621AA04F140012046FFF7EB
:104A7000CAFF11AA04F140012046FCF769FB01AA14
:104A800021462046FFF7BFFF2A4611A921A8FFF7BC
:104A900069FC05F1400204F1400101A8FFF762FC46
:104AA00031B030BD2DE9F05F06460F4691469A467B
:104AB0004FF0000800241CE056F8240057F824109A
:104AC000451A57F8241056F8240000F02BF9014637
:104AD000284600BF42420243D20F82F0010202EA9E
:104AE000080241EA020BA5EB080049F82400D84669
:104AF000641C5445E0D34046BDE8F09F70B50446C1
:104B00000D4616462023324629462046FFF7CAFFA7
:104B1000404270BD70B504460E46154620232A4615
:104B200021462846FFF7BEFF20232A463146284665
:104B3000FFF7B8FF70BD2DE9F041ADF5007D0746E8
:104B40000C46164670AA07F140013846FFF75BFF96
:104B500060AA04F140012046FFF755FF102340AA48
:104B600021463846FBF704FF102320AA04F1400138
:104B700007F14000FBF7FCFE10236A4660A970A80D
:104B8000FBF7F6FE6A4620A940A8FFF7C3FF40AA3C
:104B900020A940A8FFF7B2FF8046002508E066483C
:104BA00050F8250000EA080070A941F825006D1CA6
:104BB000102DF4D306F140016846FCF748FE50AAD8
:104BC00070A950A8FFF71FFF314640A8FCF73FFE31
:104BD0000DF5007DBDE8F08110B5A0B00446694632
:104BE0002046FFF7FDFB10A904F14000FFF7F8FB9A
:104BF0006A4610A96846FBF72BFF6846FFF78CFE54
:104C000004F14000FCF772FC224669462046FFF79B
:104C1000A9FB04F1400269461046FFF7A3FB20B050
:104C200010BD70B505460C4621462846FFF7AFFB80
:104C300004F1400105F14000FFF7A9FB70BD70B51C
:104C400005460C4621462846FFF7AAFB04F1400121
:104C500005F14000FFF7A4FB70BD70B50C460021C4
:104C600001E0491C203C202CFBD8002309E0551E04
:104C7000ED1A6D1A50F82560551EED1A40F82560A2
:104C80005B1C551A9D42F2D8531A05E00026551EAA
:104C9000ED1A40F825605B1C9342F7D39CB1511E7E
:104CA0000CE04D1E50F82550C4F12006F54050F898
:104CB0002160A640754040F82150491E0029F0D1DE
:104CC0000568A540056070BD10B50A4600210AE0E0
:104CD00050F821305C084B1C10F8233084EAC37371
:104CE00040F82130491C531E8B42F1D850F8233034
:104CF0005C08531E40F8234010BD10B50A46511EF3
:104D00000AE050F821305C004B1E50F8233084EA52
:104D1000D37340F82130491E0029F2DC03685B00A0
:104D2000036010BD024682EA0100531A4B4018434B
:104D30005040C00F7047000038610000F0B5C1B0AE
:104D400005460C4616461F4621AA05F18001284655
:104D5000FFF72FFE01AA05F180012846FFF717FE95
:104D600021A921A8FFF77BFE01A901A8FFF777FE83
:104D700004F1800221A93846FFF7DDFE224604F146
:104D8000800101A8FFF7D7FE01AA21A901A8FFF71A
:104D900010FE21AA01A93046FFF7CDFE04F18002E2
:104DA00021A91046FFF7F3FD04F1800201A9104686
:104DB000FFF7C1FE41B0F0BD2DE9F04706460C46B5
:104DC00017469846DDF82090402221463046FFF7EE
:104DD000FBFA002506E043463A4621462046FFF707
:104DE000ADFF6D1C4D45F6DBBDE8F0872DE9F041C8
:104DF00005460E4617461C4604F1800205F1800167
:104E00002846FFF7D6FD04F5807205F1800128469B
:104E1000FFF7BDFD214605F18000FFF720FE224689
:104E200021462046FFF7B3FD39462046FFF717FE1F
:104E3000224621462046FFF7AAFD31462846FFF7C5
:104E40000EFE324631463046FFF7A1FD3146304670
:104E5000FFF705FEBDE8F08130B5C1B004460D4650
:104E600021AA04F180012046FFF791FD01AA04F177
:104E700080012046FFF79DFD224605F1800121A813
:104E8000FFF759FE04F1800205F5807101A8FFF7D4
:104E900052FE21AA01A921A8FFF74DFE21AA294609
:104EA00021A8FFF748FE01AA04F180012046FFF780
:104EB0006EFD04F1800211462046FFF77AFD01A93C
:104EC00001A8FFF7CCFD04F180010846FFF7C7FDFC
:104ED000224621A901A8FFF75AFD21AA21A904F120
:104EE0008000FFF766FD224601A92046FFF723FE5A
:104EF00004F1800221A91046FFF71DFE41B030BD2C
:104F0000F0B5ADF5617D04460D4616461F46C1AAB3
:104F100004F180012046FFF74CFD81A9C1A8FFF7ED
:104F20009EFDA1AA04F180012046FFF730FD61A992
:104F3000A1A8FFF794FD41AAA1A9C1A8FFF727FDE9
:104F4000C1AAC1A9A1A8FFF734FDA1A941A8FFF7F3
:104F500086FDA1AA61A9A1A8FFF72BFDA1AA81A99D
:104F6000A1A8FFF726FD21AA394661A8FFF7E3FDB6
:104F700061AA21A961A8FFF7DEFD01AA81A9304637
:104F8000FFF7D9FD81AA01A981A8FFF7D4FD61AA85
:104F900061A981A8FFF70DFD81AA01A921A8FFF74A
:104FA00008FDA1AA81A9A1A8FFF7C5FD81AAA1A911
:104FB00061A8FFF7ECFC81A981A8FFF750FD2A4604
:104FC00081A941A8FFF7B7FDA1AAA1A961A8FFF790
:104FD000F0FCA1A9A1A8FFF742FD05F18002A1A95B
:104FE000C1A8FFF7A8FD0DF5617DF0BD2DE9F047E3
:104FF00006460C4617469846DDF82090402221468A
:105000003046FFF7E1F9002506E043463A462146DF
:105010002046FFF775FF6D1C4D45F6DBBDE8F087B8
:10502000F0B5ADF5217D05460E4617461C462246D5
:1050300005F180012846FFF7BCFC81A92046FFF757
:105040000EFD04F1800205F180012846FFF79FFC68
:1050500061A904F18000FFF702FD41AA61A981A8BE
:10506000FFF795FC21AA04F180012046FFF78FFC91
:1050700021A921A8FFF7F3FC21AA41A921A8FFF744
:1050800098FC41AA21A961A8FFF781FC21AA81A966
:1050900021A8FFF77CFC01AA21A981A8FFF777FCD2
:1050A00001AA01A901A8FFF772FC01AA01A961A840
:1050B000FFF76DFC324601A941A8FFF73CFD01AAAC
:1050C00041A961A8FFF763FC01AA01A901A8FFF7A4
:1050D0005EFC01AA01A981A8FFF759FC01AA01A958
:1050E00021A8FFF728FD81AA314601A8FFF761FC3E
:1050F0003A4681A93046FFF74AFC0DF5217DF0BD07
:1051000030B5E1B004460D4641AA04F180012046C5
:10511000FFF73DFC21AA04F180012046FFF749FC7E
:1051200041AA294641A8FFF706FD21AA05F1800101
:1051300021A8FFF700FD01AA21A941A8FFF727FC3C
:1051400041AA41A921A8FFF734FC01A901A8FFF752
:1051500086FC41A941A8FFF782FC224601A920460E
:10516000FFF7E9FC04F1800241A91046FFF7E3FCD8
:1051700061B030BD70B5ADF5007D04460D461646F4
:1051800060AA29462046FFF7D6FC40AA60A930460F
:10519000FFF7D1FC40A8FFF71FFD20AA40A9304629
:1051A000FFF7C9FC6A46294620A8FFF7C4FC2A4637
:1051B000214620A8FFF7BFFC324640A960A8FFF7B0
:1051C000BAFC21466846FFF7C0FB0DF5007D70BDB7
:1051D000F0B5E1B006460F4615461C46802101A8F1
:1051E00000F02CFF01A9F34800F08BFF21AA3946FB
:1051F0003046FFF7CCFB41AA39463046FFF79BFC0F
:10520000224621A92846FFF796FC2246214641A8BE
:10521000FFF7BDFB41AA294641A8FFF78CFC2246B7
:1052200001A92046FFF7C5FB41AA41A941A8FFF704
:10523000AEFB21AA294621A8FFF7A9FB41AA41A953
:1052400041A8FFF7A4FB21462046FFF708FC41A830
:10525000FFF7C2FC224641A92046FFF76CFC22461C
:1052600021A92046FFF7A5FB61B0F0BD70B5C0B025
:1052700006460D46144621463046FFF7F0FB6946C8
:105280002846FFF7ECFB20AA69466846FFF77FFB3C
:1052900020AA20A92046FFF78CFB20AA694620A857
:1052A000FFF787FB2246694620A8FFF782FB694685
:1052B0006846FFF7D4FB224669462046FFF73BFCD1
:1052C00020AA20A920A8FFF762FB20AA20A920A8D5
:1052D000FFF75DFB694620A8FFF7C1FB20AA6946DE
:1052E00020A8FFF728FC20AA20A920A8FFF74FFB41
:1052F00020AA20A920A8FFF74AFB2046FFF76CFC54
:10530000224620A92046FFF716FC40B070BDF0B53C
:10531000E1B004460D4616461F4641AA04F180013D
:105320002046FFF734FB21AA04F180012046FFF755
:1053300040FB214641A8FFF792FB01AA05F180013D
:105340002846FFF736FB01A8FFF753FB2A4605F175
:1053500080012846FFF71BFB41AA01A941A8FFF7DE
:10536000EAFB04F1800121A8FFF779FB21AA294675
:1053700021A8FFF7E0FB01AA04F180012046FFF716
:1053800018FB224604F180012046FFF7D4FB2A4691
:10539000394601A8FFF7CFFB05F1800221A941A8FA
:1053A000FFF707FB04F1800211462846FFF7EFFAEA
:1053B0002A4621A941A8FFF7EAFA04F1800201A9CF
:1053C0001046FFF7B8FB05F180010846FFF747FBE1
:1053D00029462846FFF743FB05F180023146104677
:1053E000FFF7A9FB61B0F0BD70B50346144600207D
:1053F00063E053F8205051F82060754005EA04023C
:1054000053F82050554043F8205051F82050554053
:1054100041F8205003F1800555F8205001F1800635
:1054200056F82060754005EA040203F1800555F83E
:105430002050554003F1800646F8205001F18005C8
:1054400055F82050554001F1800646F8205003F1F0
:10545000400555F82050403E56F82060754005EA5A
:10546000040203F1400555F82050554003F1400671
:1054700046F8205001F1400555F82050554001F103
:10548000400646F8205003F1C00555F8206001F1B0
:10549000C00555F82050754005EA040203F1C00527
:1054A00055F82060564045F8206001F1C00555F8D8
:1054B0002060564045F82060401C102899D370BDEC
:1054C0002DE9FF4FADF5237D884691469A46B19C64
:1054D0004FF4807163A800F0B1FD4FF4807123A8F0
:1054E00000F0ACFD802103A800F0A8FD0020019091
:1054F000B09808B9FA2600E0FD2603A92D4800F06F
:1055000000FE03AA03A903A8FFF741FA03AA03A90F
:10551000B298FFF73CFA03A903A8FFF75CFA03A9C6
:1055200003A8FFF758FA63A94046FFF70EFA83A9CC
:10553000204800F0E6FD23A94846FFF706FA43A9F4
:105540001C4800F0DEFD2146A398FFF7FEF904F1A8
:105550008001184800F0D5FD04F1C00000F0DCFD2A
:10556000002520E068115AF8200005F01F01C8400E
:1055700000F0010701987840029001970298C0F16D
:10558000000B5A4623A92046FFF72EFF03AB224605
:1055900023A963A8FFF7BBFE23AA04F1800123A877
:1055A000FFF7C9FA6D1CB542DCDB0DF5277DBDE8C0
:1055B000F08F0000F864000010B50246134600208A
:1055C00003E0002443F82040401C8842F9D310BD7A
:1055D0002DE9F04104460F4615461E463946204641
:1055E00000F08FFD07F1400104F1400000F089FD5B
:1055F000294604F1800000F084FD05F1400000F030
:105600008BFD314604F1C00000F07BFD06F1400146
:1056100004F5807000F075FDBDE8F08170B5A0B0B4
:1056200006460D4669463046FFF709FB002409E0AF
:105630001DF80400285504F140001DF80010401E1C
:105640002954641C3F2CF3D320B070BD70B50646BE
:105650000D46002402E000202855641C802CFAD35B
:10566000002407E0305D285504F13F00315C401C08
:105670002954641C3F2CF5D329462846FFF7D1FA5C
:1056800070BD70B506462024002508213046FFF77E
:1056900093FF22462B46304600F0F0FB601E305C44
:1056A00000F00302601E325470BD70B5064620241F
:1056B000002508213046FFF77FFF22462B46304663
:1056C00000F0DCFB601E305C00F00F02601E325404
:1056D00070BD2DE9F04FADF6AC7D82460D464FF41E
:1056E00080710DF6AC5000F0A9FC4FF480710DF6FE
:1056F000AC4000F0A3FC4FF480710DF6AC3000F02C
:105700009DFC80214BA800F099FC80212BA800F083
:1057100095FC80210BA800F091FC4FF000090024BB
:10572000A346CBABEBAA0DF22C41FE48FFF750FF8E
:105730000DF6AC330DF6AC420DF6AC51FA48FFF75E
:1057400047FF0DF62C61F94800F0DBFC0DF62C51FB
:10575000F64800F0D6FC0DF62C41F44800F0D1FCE0
:105760004BA9F24800F0CDFC2BAA4BA94BA8FFF7A0
:105770000EF90BA80DF6AC6100225346CDE90021CD
:105780000290CBAAEBA90DF22C40FFF799FE00BFC7
:10579000012768E027E00DF2AC4000EB04210DF694
:1057A000AC60FFF7D2F80DF2AC4000EB042000F142
:1057B00080010DF62C70FFF7C8F82046641C04A980
:1057C00041F8209058460BF1010BD94951F820803F
:1057D0004FEA48002BAB4BAA0DF6AC61009008468F
:1057E000FFF7EAFAC144C7F17D004845D3D86BAB57
:1057F0002BAA4BA90DF6AC60FFF7F8FA002607E0DC
:105800000DF2AC4101EB06206BA9FFF725FB761CDE
:10581000A642F5D36BA90DF6AC50FFF71DFB6BA9A3
:105820000DF6AC40FFF718FB6BA90DF6AC30FFF797
:1058300013FB611E0DF2AC4202EB01200DF6AC61D0
:10584000FFF783F8611E0DF2AC4202EB012101F17A
:1058500080000DF62C71FFF778F8601E04A951F84E
:105860002090641E7F1C7D2F94D36BAB2BAA4BA979
:105870000DF6AC60FFF7BAFA6BA90DF6AC50FFF766
:10588000EBFA6BA90DF6AC40FFF7E6FA6BA90DF643
:10589000AC30FFF7E1FA0DF62C420DF62C510DF667
:1058A0002C60FFF767FC0DF6AC520DF62C6110462C
:1058B000FFF741F90DF6AC420DF62C511046FFF7FB
:1058C0003AF90DF6AC320DF62C411046FFF733F9DC
:1058D00029460DF6AC50FFF7A1FE05F17E010DF64D
:1058E000AC40FFF79BFE05F1FC010DF6AC30FFF775
:1058F00095FE00200DF6AC7DBDE8F08F2DE9F05F40
:10590000ADF5865D82460D464FF480710DF56C60F5
:1059100000F094FB4FF480710DF55C6000F08EFB9D
:105920004FF480710DF54C6000F088FB802150A889
:1059300000F084FB802130A800F080FB802110A8BB
:1059400000F07CFB4FF000090024A346D0ABF0AA86
:105950000DF588617448FFF73BFE0DF54C630DF5BE
:105960005C620DF56C616F48FFF732FE0DF57461F6
:105970006E4800F0C6FB0DF564616C4800F0C1FB99
:105980000DF55461694800F0BCFB50A9674800F070
:10599000B8FB50AA50A950A8FEF7F9FF30A950A8AB
:1059A000FEF7D3FF30A8FEF7E8FF10A80DF57C61E5
:1059B00001225346CDE900210290D0AAF0A90DF5AD
:1059C0008860FFF77DFD00BF012767E026E00DF549
:1059D000986000EB04210DF57C60FEF7B6FF0DF535
:1059E000986000EB042000F180010DF58250FEF775
:1059F000ACFF2046641C08A941F8209058460BF1E2
:105A0000010B4C4951F8208050AB30AA0DF57C6158
:105A10000846CDF80080FFF7E9FAC144C7F19F00BE
:105A20004845D4D870AB50AA30A90DF57C60FFF77B
:105A3000F7FA002607E00DF5986101EB062070A942
:105A4000FFF75EFB761CA642F5D370A90DF56C60DE
:105A5000FFF756FB70A90DF55C60FFF751FB70A9CD
:105A60000DF54C60FFF74CFB611E0DF5986202EBE3
:105A700001200DF57C61FEF768FF611E0DF598624F
:105A800002EB012101F180000DF58251FEF75DFF6F
:105A9000601E08A951F82090641E7F1C9F2F95D38B
:105AA00070AB50AA30A90DF57C60FFF7B9FA70A968
:105AB0000DF56C60FFF724FB70A90DF55C60FFF736
:105AC0001FFB70A90DF54C60FFF71AFB0DF5546232
:105AD0000DF564610DF57460FFF74CFB0DF56C621C
